{
  "_format": "hh-sol-artifact-1",
  "contractName": "Wasap_v2",
  "sourceName": "contracts/Wasap_v2.sol",
  "abi": [
    {
      "inputs": [],
      "name": "CannotAddYourselfAsAContact",
      "type": "error"
    },
    {
      "inputs": [],
      "name": "CreateAnAccountFirst",
      "type": "error"
    },
    {
      "inputs": [],
      "name": "IncorrectPaymentAmount",
      "type": "error"
    },
    {
      "inputs": [],
      "name": "InsufficientBalance",
      "type": "error"
    },
    {
      "inputs": [],
      "name": "InvalidAddress",
      "type": "error"
    },
    {
      "inputs": [],
      "name": "NewContactIsNotRegistered",
      "type": "error"
    },
    {
      "inputs": [],
      "name": "PaymentFailed",
      "type": "error"
    },
    {
      "inputs": [],
      "name": "UserAlreadyExist",
      "type": "error"
    },
    {
      "inputs": [],
      "name": "UserIsNotRegistered",
      "type": "error"
    },
    {
      "inputs": [],
      "name": "UserNameCannotBeEmpty",
      "type": "error"
    },
    {
      "inputs": [],
      "name": "UsersAlreadyContacts",
      "type": "error"
    },
    {
      "inputs": [],
      "name": "YouAreNotContactWithGivenUser",
      "type": "error"
    },
    {
      "anonymous": false,
      "inputs": [
        {
          "indexed": false,
          "internalType": "address",
          "name": "user",
          "type": "address"
        }
      ],
      "name": "AccountCreated",
      "type": "event"
    },
    {
      "anonymous": false,
      "inputs": [
        {
          "indexed": false,
          "internalType": "address",
          "name": "user",
          "type": "address"
        },
        {
          "indexed": false,
          "internalType": "address",
          "name": "contact",
          "type": "address"
        }
      ],
      "name": "ContactAdded",
      "type": "event"
    },
    {
      "anonymous": false,
      "inputs": [
        {
          "indexed": false,
          "internalType": "address",
          "name": "user",
          "type": "address"
        },
        {
          "indexed": false,
          "internalType": "address",
          "name": "contact",
          "type": "address"
        }
      ],
      "name": "ContactInfoUpdated",
      "type": "event"
    },
    {
      "anonymous": false,
      "inputs": [
        {
          "indexed": false,
          "internalType": "address",
          "name": "sender",
          "type": "address"
        },
        {
          "indexed": false,
          "internalType": "address",
          "name": "recipient",
          "type": "address"
        }
      ],
      "name": "PaymentSent",
      "type": "event"
    },
    {
      "anonymous": false,
      "inputs": [
        {
          "indexed": false,
          "internalType": "address",
          "name": "user",
          "type": "address"
        },
        {
          "indexed": false,
          "internalType": "address",
          "name": "contact",
          "type": "address"
        }
      ],
      "name": "TextSent",
      "type": "event"
    },
    {
      "anonymous": false,
      "inputs": [
        {
          "indexed": false,
          "internalType": "address",
          "name": "user",
          "type": "address"
        }
      ],
      "name": "UserInfoUpdated",
      "type": "event"
    },
    {
      "stateMutability": "nonpayable",
      "type": "fallback"
    },
    {
      "inputs": [
        {
          "internalType": "address",
          "name": "_contactAddress",
          "type": "address"
        },
        {
          "internalType": "string",
          "name": "_contactName",
          "type": "string"
        }
      ],
      "name": "addContact",
      "outputs": [],
      "stateMutability": "nonpayable",
      "type": "function"
    },
    {
      "inputs": [
        {
          "internalType": "address",
          "name": "addressUser",
          "type": "address"
        }
      ],
      "name": "checkUserExists",
      "outputs": [
        {
          "internalType": "bool",
          "name": "",
          "type": "bool"
        }
      ],
      "stateMutability": "view",
      "type": "function"
    },
    {
      "inputs": [
        {
          "internalType": "string",
          "name": "_name",
          "type": "string"
        },
        {
          "internalType": "string",
          "name": "_avatar",
          "type": "string"
        }
      ],
      "name": "createAccount",
      "outputs": [],
      "stateMutability": "nonpayable",
      "type": "function"
    },
    {
      "inputs": [],
      "name": "getAllAppUsers",
      "outputs": [
        {
          "components": [
            {
              "internalType": "string",
              "name": "name",
              "type": "string"
            },
            {
              "internalType": "address",
              "name": "userAddress",
              "type": "address"
            }
          ],
          "internalType": "struct Wasap_v2.AllUsers[]",
          "name": "",
          "type": "tuple[]"
        }
      ],
      "stateMutability": "view",
      "type": "function"
    },
    {
      "inputs": [],
      "name": "getUserContactList",
      "outputs": [
        {
          "components": [
            {
              "internalType": "address",
              "name": "contactAddress",
              "type": "address"
            },
            {
              "internalType": "string",
              "name": "name",
              "type": "string"
            },
            {
              "internalType": "string",
              "name": "avatar",
              "type": "string"
            }
          ],
          "internalType": "struct Wasap_v2.ContactWithAvatar[]",
          "name": "",
          "type": "tuple[]"
        }
      ],
      "stateMutability": "view",
      "type": "function"
    },
    {
      "inputs": [
        {
          "internalType": "address",
          "name": "_address",
          "type": "address"
        }
      ],
      "name": "getUserInfo",
      "outputs": [
        {
          "internalType": "string",
          "name": "name",
          "type": "string"
        },
        {
          "internalType": "string",
          "name": "avatar",
          "type": "string"
        }
      ],
      "stateMutability": "view",
      "type": "function"
    },
    {
      "inputs": [
        {
          "internalType": "address",
          "name": "_contactAddress",
          "type": "address"
        }
      ],
      "name": "readPayments",
      "outputs": [
        {
          "components": [
            {
              "internalType": "address",
              "name": "sender",
              "type": "address"
            },
            {
              "internalType": "uint256",
              "name": "timestamp",
              "type": "uint256"
            },
            {
              "internalType": "uint256",
              "name": "amount",
              "type": "uint256"
            }
          ],
          "internalType": "struct Wasap_v2.Payment[]",
          "name": "",
          "type": "tuple[]"
        }
      ],
      "stateMutability": "view",
      "type": "function"
    },
    {
      "inputs": [
        {
          "internalType": "address",
          "name": "_contactAddress",
          "type": "address"
        }
      ],
      "name": "readTexts",
      "outputs": [
        {
          "components": [
            {
              "internalType": "address",
              "name": "sender",
              "type": "address"
            },
            {
              "internalType": "uint256",
              "name": "timestamp",
              "type": "uint256"
            },
            {
              "internalType": "string",
              "name": "text",
              "type": "string"
            }
          ],
          "internalType": "struct Wasap_v2.Text[]",
          "name": "",
          "type": "tuple[]"
        }
      ],
      "stateMutability": "view",
      "type": "function"
    },
    {
      "inputs": [
        {
          "internalType": "address payable",
          "name": "_contactAddress",
          "type": "address"
        }
      ],
      "name": "sendPayment",
      "outputs": [],
      "stateMutability": "payable",
      "type": "function"
    },
    {
      "inputs": [
        {
          "internalType": "address",
          "name": "_contactAddress",
          "type": "address"
        },
        {
          "internalType": "string",
          "name": "_text",
          "type": "string"
        }
      ],
      "name": "sendText",
      "outputs": [],
      "stateMutability": "nonpayable",
      "type": "function"
    },
    {
      "inputs": [
        {
          "internalType": "address",
          "name": "_contactAddress",
          "type": "address"
        },
        {
          "internalType": "string",
          "name": "_name",
          "type": "string"
        }
      ],
      "name": "updateContactName",
      "outputs": [],
      "stateMutability": "nonpayable",
      "type": "function"
    },
    {
      "inputs": [
        {
          "internalType": "string",
          "name": "_userAvatar",
          "type": "string"
        },
        {
          "internalType": "string",
          "name": "_userName",
          "type": "string"
        }
      ],
      "name": "updateUserInfo",
      "outputs": [],
      "stateMutability": "nonpayable",
      "type": "function"
    },
    {
      "stateMutability": "payable",
      "type": "receive"
    }
  ],
  "bytecode": "0x608060405234801561001057600080fd5b50612b31806100206000396000f3fe6080604052600436106100ab5760003560e01c8063835852a511610064578063835852a5146102075780638361651d146102305780638a7644a81461025b578063c444816414610277578063db6dd4f1146102a0578063fa12422f146102cb576100b2565b8063133f50f5146100c057806319289287146100fd5780634b3fcab51461012657806360a864861461014f578063635d175d1461018c5780636386c1c7146101c9576100b2565b366100b257005b3480156100be57600080fd5b005b3480156100cc57600080fd5b506100e760048036038101906100e29190611cf2565b6102f4565b6040516100f49190611d3a565b60405180910390f35b34801561010957600080fd5b50610124600480360381019061011f9190611dba565b61034e565b005b34801561013257600080fd5b5061014d60048036038101906101489190611dba565b6105a5565b005b34801561015b57600080fd5b5061017660048036038101906101719190611cf2565b610686565b6040516101839190612005565b60405180910390f35b34801561019857600080fd5b506101b360048036038101906101ae9190611cf2565b6107f9565b6040516101c09190612118565b60405180910390f35b3480156101d557600080fd5b506101f060048036038101906101eb9190611cf2565b6108e4565b6040516101fe929190612184565b60405180910390f35b34801561021357600080fd5b5061022e600480360381019061022991906121bb565b610acb565b005b34801561023c57600080fd5b50610245610c60565b6040516102529190612334565b60405180910390f35b61027560048036038101906102709190612394565b610fda565b005b34801561028357600080fd5b5061029e600480360381019061029991906121bb565b611291565b005b3480156102ac57600080fd5b506102b561157d565b6040516102c291906124c0565b60405180910390f35b3480156102d757600080fd5b506102f260048036038101906102ed91906121bb565b6116c4565b005b600080600160008473ffffffffffffffffffffffffffffffffffffffff1673ffffffffffffffffffffffffffffffffffffffff168152602001908152602001600020600101805461034490612511565b9050119050919050565b610357336102f4565b1561038e576040517f3ee20b6900000000000000000000000000000000000000000000000000000000815260040160405180910390fd5b600084849050036103cb576040517fa3be3df000000000000000000000000000000000000000000000000000000000815260040160405180910390fd5b8181600160003373ffffffffffffffffffffffffffffffffffffffff1673ffffffffffffffffffffffffffffffffffffffff168152602001908152602001600020600001918261041c929190612728565b508383600160003373ffffffffffffffffffffffffffffffffffffffff1673ffffffffffffffffffffffffffffffffffffffff168152602001908152602001600020600101918261046e929190612728565b506000604051806040016040528086868080601f016020809104026020016040519081016040528093929190818152602001838380828437600081840152601f19601f8201169050808301925050505050505081526020013373ffffffffffffffffffffffffffffffffffffffff168152509080600181540180825580915050600190039060005260206000209060020201600090919091909150600082015181600001908161051e91906127f8565b5060208201518160010160006101000a81548173ffffffffffffffffffffffffffffffffffffffff021916908373ffffffffffffffffffffffffffffffffffffffff16021790555050507f805996f252884581e2f74cf3d2b03564d5ec26ccc90850ae12653dc1b72d1fa23360405161059791906128d9565b60405180910390a150505050565b8181600160003373ffffffffffffffffffffffffffffffffffffffff1673ffffffffffffffffffffffffffffffffffffffff16815260200190815260200160002060010191826105f6929190612728565b508383600160003373ffffffffffffffffffffffffffffffffffffffff1673ffffffffffffffffffffffffffffffffffffffff1681526020019081526020016000206000019182610648929190612728565b507fa267530518909239d6d9966f12bf391177dde455b3233f6166ab8cd424f17fd53360405161067891906128d9565b60405180910390a150505050565b6060600061069433846118ef565b905060026000828152602001908152602001600020805480602002602001604051908101604052809291908181526020016000905b828210156107ed57838290600052602060002090600302016040518060600160405290816000820160009054906101000a900473ffffffffffffffffffffffffffffffffffffffff1673ffffffffffffffffffffffffffffffffffffffff1673ffffffffffffffffffffffffffffffffffffffff1681526020016001820154815260200160028201805461075c90612511565b80601f016020809104026020016040519081016040528092919081815260200182805461078890612511565b80156107d55780601f106107aa576101008083540402835291602001916107d5565b820191906000526020600020905b8154815290600101906020018083116107b857829003601f168201915b505050505081525050815260200190600101906106c9565b50505050915050919050565b6060600061080733846118ef565b905060036000828152602001908152602001600020805480602002602001604051908101604052809291908181526020016000905b828210156108d857838290600052602060002090600302016040518060600160405290816000820160009054906101000a900473ffffffffffffffffffffffffffffffffffffffff1673ffffffffffffffffffffffffffffffffffffffff1673ffffffffffffffffffffffffffffffffffffffff168152602001600182015481526020016002820154815250508152602001906001019061083c565b50505050915050919050565b6060806108f0336102f4565b610926576040517f88ce161b00000000000000000000000000000000000000000000000000000000815260040160405180910390fd5b600160008473ffffffffffffffffffffffffffffffffffffffff1673ffffffffffffffffffffffffffffffffffffffff168152602001908152602001600020600101600160008573ffffffffffffffffffffffffffffffffffffffff1673ffffffffffffffffffffffffffffffffffffffff1681526020019081526020016000206000018180546109b690612511565b80601f01602080910402602001604051908101604052809291908181526020018280546109e290612511565b8015610a2f5780601f10610a0457610100808354040283529160200191610a2f565b820191906000526020600020905b815481529060010190602001808311610a1257829003601f168201915b50505050509150808054610a4290612511565b80601f0160208091040260200160405190810160405280929190818152602001828054610a6e90612511565b8015610abb5780601f10610a9057610100808354040283529160200191610abb565b820191906000526020600020905b815481529060010190602001808311610a9e57829003601f168201915b5050505050905091509150915091565b60008282905003610b08576040517fa3be3df000000000000000000000000000000000000000000000000000000000815260040160405180910390fd5b6000600160003373ffffffffffffffffffffffffffffffffffffffff1673ffffffffffffffffffffffffffffffffffffffff168152602001908152602001600020600201905060005b8180549050811015610c20578473ffffffffffffffffffffffffffffffffffffffff16828281548110610b8757610b866128f4565b5b906000526020600020906002020160000160009054906101000a900473ffffffffffffffffffffffffffffffffffffffff1673ffffffffffffffffffffffffffffffffffffffff1603610c0d578383838381548110610be957610be86128f4565b5b90600052602060002090600202016001019182610c07929190612728565b50610c20565b8080610c1890612952565b915050610b51565b507f73ce70270a42e8d7bebf368ff404a5a3f63dbef22a76e261022c0069d042a2f53385604051610c5292919061299a565b60405180910390a150505050565b60606000600160003373ffffffffffffffffffffffffffffffffffffffff1673ffffffffffffffffffffffffffffffffffffffff168152602001908152602001600020600201805480602002602001604051908101604052809291908181526020016000905b82821015610de057838290600052602060002090600202016040518060400160405290816000820160009054906101000a900473ffffffffffffffffffffffffffffffffffffffff1673ffffffffffffffffffffffffffffffffffffffff1673ffffffffffffffffffffffffffffffffffffffff168152602001600182018054610d4f90612511565b80601f0160208091040260200160405190810160405280929190818152602001828054610d7b90612511565b8015610dc85780601f10610d9d57610100808354040283529160200191610dc8565b820191906000526020600020905b815481529060010190602001808311610dab57829003601f168201915b50505050508152505081526020019060010190610cc6565b5050505090506000815167ffffffffffffffff811115610e0357610e0261254d565b5b604051908082528060200260200182016040528015610e3c57816020015b610e29611c53565b815260200190600190039081610e215790505b50905060005b8251811015610fd1576040518060600160405280848381518110610e6957610e686128f4565b5b60200260200101516000015173ffffffffffffffffffffffffffffffffffffffff168152602001848381518110610ea357610ea26128f4565b5b602002602001015160200151815260200160016000868581518110610ecb57610eca6128f4565b5b60200260200101516000015173ffffffffffffffffffffffffffffffffffffffff1673ffffffffffffffffffffffffffffffffffffffff1681526020019081526020016000206000018054610f1f90612511565b80601f0160208091040260200160405190810160405280929190818152602001828054610f4b90612511565b8015610f985780601f10610f6d57610100808354040283529160200191610f98565b820191906000526020600020905b815481529060010190602001808311610f7b57829003601f168201915b5050505050815250828281518110610fb357610fb26128f4565b5b60200260200101819052508080610fc990612952565b915050610e42565b50809250505090565b60003403611014576040517f6992e1ff00000000000000000000000000000000000000000000000000000000815260040160405180910390fd5b61101d336102f4565b611053576040517fe948a3c000000000000000000000000000000000000000000000000000000000815260040160405180910390fd5b61105c816102f4565b611092576040517f88ce161b00000000000000000000000000000000000000000000000000000000815260040160405180910390fd5b61109c3382611987565b6110d2576040517f926b299f00000000000000000000000000000000000000000000000000000000815260040160405180910390fd5b60008173ffffffffffffffffffffffffffffffffffffffff16346040516110f8906129f4565b60006040518083038185875af1925050503d8060008114611135576040519150601f19603f3d011682016040523d82523d6000602084013e61113a565b606091505b5050905080611175576040517ff499da2000000000000000000000000000000000000000000000000000000000815260040160405180910390fd5b600061118133846118ef565b9050600060405180606001604052803373ffffffffffffffffffffffffffffffffffffffff1681526020014281526020013481525090506003600083815260200190815260200160002081908060018154018082558091505060019003906000526020600020906003020160009091909190915060008201518160000160006101000a81548173ffffffffffffffffffffffffffffffffffffffff021916908373ffffffffffffffffffffffffffffffffffffffff160217905550602082015181600101556040820151816002015550507ffce22cefdb336b39334f060bbcd137935749cf710dbecfef411e899ac50bc4943385604051611283929190612a5e565b60405180910390a150505050565b61129a336102f4565b6112d0576040517fe948a3c000000000000000000000000000000000000000000000000000000000815260040160405180910390fd5b6112d9836102f4565b61130f576040517f62992a7d00000000000000000000000000000000000000000000000000000000815260040160405180910390fd5b8273ffffffffffffffffffffffffffffffffffffffff163373ffffffffffffffffffffffffffffffffffffffff1603611374576040517f1b938d2700000000000000000000000000000000000000000000000000000000815260040160405180910390fd5b61137e3384611987565b156113b5576040517feac2e91600000000000000000000000000000000000000000000000000000000815260040160405180910390fd5b600073ffffffffffffffffffffffffffffffffffffffff168373ffffffffffffffffffffffffffffffffffffffff160361141b576040517fe6c4247b00000000000000000000000000000000000000000000000000000000815260040160405180910390fd5b61146a338484848080601f016020809104026020016040519081016040528093929190818152602001838380828437600081840152601f19601f82011690508083019250505050505050611b59565b61153f8333600160003373ffffffffffffffffffffffffffffffffffffffff1673ffffffffffffffffffffffffffffffffffffffff16815260200190815260200160002060010180546114bc90612511565b80601f01602080910402602001604051908101604052809291908181526020018280546114e890612511565b80156115355780601f1061150a57610100808354040283529160200191611535565b820191906000526020600020905b81548152906001019060200180831161151857829003601f168201915b5050505050611b59565b7f991da500dc9f910ce2a64c3d13783d3f75d912d123ae2d8334ad0a817c91f23b338460405161157092919061299a565b60405180910390a1505050565b60606000805480602002602001604051908101604052809291908181526020016000905b828210156116bb57838290600052602060002090600202016040518060400160405290816000820180546115d490612511565b80601f016020809104026020016040519081016040528092919081815260200182805461160090612511565b801561164d5780601f106116225761010080835404028352916020019161164d565b820191906000526020600020905b81548152906001019060200180831161163057829003601f168201915b505050505081526020016001820160009054906101000a900473ffffffffffffffffffffffffffffffffffffffff1673ffffffffffffffffffffffffffffffffffffffff1673ffffffffffffffffffffffffffffffffffffffff1681525050815260200190600101906115a1565b50505050905090565b6116cd336102f4565b611703576040517fe948a3c000000000000000000000000000000000000000000000000000000000815260040160405180910390fd5b61170c836102f4565b611742576040517f88ce161b00000000000000000000000000000000000000000000000000000000815260040160405180910390fd5b61174c3384611987565b611782576040517f926b299f00000000000000000000000000000000000000000000000000000000815260040160405180910390fd5b600061178e33856118ef565b9050600060405180606001604052803373ffffffffffffffffffffffffffffffffffffffff16815260200142815260200185858080601f016020809104026020016040519081016040528093929190818152602001838380828437600081840152601f19601f8201169050808301925050505050505081525090506002600083815260200190815260200160002081908060018154018082558091505060019003906000526020600020906003020160009091909190915060008201518160000160006101000a81548173ffffffffffffffffffffffffffffffffffffffff021916908373ffffffffffffffffffffffffffffffffffffffff1602179055506020820151816001015560408201518160020190816118ac91906127f8565b5050507f14698637437af4a59b248ab2bb4be39b04aac83c0edd5a32fc9ee6b30839bc5933866040516118e092919061299a565b60405180910390a15050505050565b60008173ffffffffffffffffffffffffffffffffffffffff168373ffffffffffffffffffffffffffffffffffffffff161015611955578282604051602001611938929190612acf565b604051602081830303815290604052805190602001209050611981565b8183604051602001611968929190612acf565b6040516020818303038152906040528051906020012090505b92915050565b6000600160008373ffffffffffffffffffffffffffffffffffffffff1673ffffffffffffffffffffffffffffffffffffffff16815260200190815260200160002060020180549050600160008573ffffffffffffffffffffffffffffffffffffffff1673ffffffffffffffffffffffffffffffffffffffff168152602001908152602001600020600201805490501115611a28576000839050829350809250505b60005b600160008573ffffffffffffffffffffffffffffffffffffffff1673ffffffffffffffffffffffffffffffffffffffff16815260200190815260200160002060020180549050811015611b4d578273ffffffffffffffffffffffffffffffffffffffff16600160008673ffffffffffffffffffffffffffffffffffffffff1673ffffffffffffffffffffffffffffffffffffffff1681526020019081526020016000206002018281548110611ae357611ae26128f4565b5b906000526020600020906002020160000160009054906101000a900473ffffffffffffffffffffffffffffffffffffffff1673ffffffffffffffffffffffffffffffffffffffff1603611b3a576001915050611b53565b8080611b4590612952565b915050611a2b565b50600090505b92915050565b600160008473ffffffffffffffffffffffffffffffffffffffff1673ffffffffffffffffffffffffffffffffffffffff16815260200190815260200160002060020160405180604001604052808473ffffffffffffffffffffffffffffffffffffffff16815260200183815250908060018154018082558091505060019003906000526020600020906002020160009091909190915060008201518160000160006101000a81548173ffffffffffffffffffffffffffffffffffffffff021916908373ffffffffffffffffffffffffffffffffffffffff1602179055506020820151816001019081611c4b91906127f8565b505050505050565b6040518060600160405280600073ffffffffffffffffffffffffffffffffffffffff16815260200160608152602001606081525090565b600080fd5b600080fd5b600073ffffffffffffffffffffffffffffffffffffffff82169050919050565b6000611cbf82611c94565b9050919050565b611ccf81611cb4565b8114611cda57600080fd5b50565b600081359050611cec81611cc6565b92915050565b600060208284031215611d0857611d07611c8a565b5b6000611d1684828501611cdd565b91505092915050565b60008115159050919050565b611d3481611d1f565b82525050565b6000602082019050611d4f6000830184611d2b565b92915050565b600080fd5b600080fd5b600080fd5b60008083601f840112611d7a57611d79611d55565b5b8235905067ffffffffffffffff811115611d9757611d96611d5a565b5b602083019150836001820283011115611db357611db2611d5f565b5b9250929050565b60008060008060408587031215611dd457611dd3611c8a565b5b600085013567ffffffffffffffff811115611df257611df1611c8f565b5b611dfe87828801611d64565b9450945050602085013567ffffffffffffffff811115611e2157611e20611c8f565b5b611e2d87828801611d64565b925092505092959194509250565b600081519050919050565b600082825260208201905092915050565b6000819050602082019050919050565b611e7081611cb4565b82525050565b6000819050919050565b611e8981611e76565b82525050565b600081519050919050565b600082825260208201905092915050565b60005b83811015611ec9578082015181840152602081019050611eae565b60008484015250505050565b6000601f19601f8301169050919050565b6000611ef182611e8f565b611efb8185611e9a565b9350611f0b818560208601611eab565b611f1481611ed5565b840191505092915050565b6000606083016000830151611f376000860182611e67565b506020830151611f4a6020860182611e80565b5060408301518482036040860152611f628282611ee6565b9150508091505092915050565b6000611f7b8383611f1f565b905092915050565b6000602082019050919050565b6000611f9b82611e3b565b611fa58185611e46565b935083602082028501611fb785611e57565b8060005b85811015611ff35784840389528151611fd48582611f6f565b9450611fdf83611f83565b925060208a01995050600181019050611fbb565b50829750879550505050505092915050565b6000602082019050818103600083015261201f8184611f90565b905092915050565b600081519050919050565b600082825260208201905092915050565b6000819050602082019050919050565b6060820160008201516120696000850182611e67565b50602082015161207c6020850182611e80565b50604082015161208f6040850182611e80565b50505050565b60006120a18383612053565b60608301905092915050565b6000602082019050919050565b60006120c582612027565b6120cf8185612032565b93506120da83612043565b8060005b8381101561210b5781516120f28882612095565b97506120fd836120ad565b9250506001810190506120de565b5085935050505092915050565b6000602082019050818103600083015261213281846120ba565b905092915050565b600082825260208201905092915050565b600061215682611e8f565b612160818561213a565b9350612170818560208601611eab565b61217981611ed5565b840191505092915050565b6000604082019050818103600083015261219e818561214b565b905081810360208301526121b2818461214b565b90509392505050565b6000806000604084860312156121d4576121d3611c8a565b5b60006121e286828701611cdd565b935050602084013567ffffffffffffffff81111561220357612202611c8f565b5b61220f86828701611d64565b92509250509250925092565b600081519050919050565b600082825260208201905092915050565b6000819050602082019050919050565b600060608301600083015161225f6000860182611e67565b50602083015184820360208601526122778282611ee6565b915050604083015184820360408601526122918282611ee6565b9150508091505092915050565b60006122aa8383612247565b905092915050565b6000602082019050919050565b60006122ca8261221b565b6122d48185612226565b9350836020820285016122e685612237565b8060005b858110156123225784840389528151612303858261229e565b945061230e836122b2565b925060208a019950506001810190506122ea565b50829750879550505050505092915050565b6000602082019050818103600083015261234e81846122bf565b905092915050565b600061236182611c94565b9050919050565b61237181612356565b811461237c57600080fd5b50565b60008135905061238e81612368565b92915050565b6000602082840312156123aa576123a9611c8a565b5b60006123b88482850161237f565b91505092915050565b600081519050919050565b600082825260208201905092915050565b6000819050602082019050919050565b6000604083016000830151848203600086015261240a8282611ee6565b915050602083015161241f6020860182611e67565b508091505092915050565b600061243683836123ed565b905092915050565b6000602082019050919050565b6000612456826123c1565b61246081856123cc565b935083602082028501612472856123dd565b8060005b858110156124ae578484038952815161248f858261242a565b945061249a8361243e565b925060208a01995050600181019050612476565b50829750879550505050505092915050565b600060208201905081810360008301526124da818461244b565b905092915050565b7f4e487b7100000000000000000000000000000000000000000000000000000000600052602260045260246000fd5b6000600282049050600182168061252957607f821691505b60208210810361253c5761253b6124e2565b5b50919050565b600082905092915050565b7f4e487b7100000000000000000000000000000000000000000000000000000000600052604160045260246000fd5b60008190508160005260206000209050919050565b60006020601f8301049050919050565b600082821b905092915050565b6000600883026125de7fffffffffffffffffffffffffffffffffffffffffffffffffffffffffffffffff826125a1565b6125e886836125a1565b95508019841693508086168417925050509392505050565b6000819050919050565b600061262561262061261b84611e76565b612600565b611e76565b9050919050565b6000819050919050565b61263f8361260a565b61265361264b8261262c565b8484546125ae565b825550505050565b600090565b61266861265b565b612673818484612636565b505050565b5b818110156126975761268c600082612660565b600181019050612679565b5050565b601f8211156126dc576126ad8161257c565b6126b684612591565b810160208510156126c5578190505b6126d96126d185612591565b830182612678565b50505b505050565b600082821c905092915050565b60006126ff600019846008026126e1565b1980831691505092915050565b600061271883836126ee565b9150826002028217905092915050565b6127328383612542565b67ffffffffffffffff81111561274b5761274a61254d565b5b6127558254612511565b61276082828561269b565b6000601f83116001811461278f576000841561277d578287013590505b612787858261270c565b8655506127ef565b601f19841661279d8661257c565b60005b828110156127c5578489013582556001820191506020850194506020810190506127a0565b868310156127e257848901356127de601f8916826126ee565b8355505b6001600288020188555050505b50505050505050565b61280182611e8f565b67ffffffffffffffff81111561281a5761281961254d565b5b6128248254612511565b61282f82828561269b565b600060209050601f8311600181146128625760008415612850578287015190505b61285a858261270c565b8655506128c2565b601f1984166128708661257c565b60005b8281101561289857848901518255600182019150602085019450602081019050612873565b868310156128b557848901516128b1601f8916826126ee565b8355505b6001600288020188555050505b505050505050565b6128d381611cb4565b82525050565b60006020820190506128ee60008301846128ca565b92915050565b7f4e487b7100000000000000000000000000000000000000000000000000000000600052603260045260246000fd5b7f4e487b7100000000000000000000000000000000000000000000000000000000600052601160045260246000fd5b600061295d82611e76565b91507fffffffffffffffffffffffffffffffffffffffffffffffffffffffffffffffff820361298f5761298e612923565b5b600182019050919050565b60006040820190506129af60008301856128ca565b6129bc60208301846128ca565b9392505050565b600081905092915050565b50565b60006129de6000836129c3565b91506129e9826129ce565b600082019050919050565b60006129ff826129d1565b9150819050919050565b6000612a24612a1f612a1a84611c94565b612600565b611c94565b9050919050565b6000612a3682612a09565b9050919050565b6000612a4882612a2b565b9050919050565b612a5881612a3d565b82525050565b6000604082019050612a7360008301856128ca565b612a806020830184612a4f565b9392505050565b60008160601b9050919050565b6000612a9f82612a87565b9050919050565b6000612ab182612a94565b9050919050565b612ac9612ac482611cb4565b612aa6565b82525050565b6000612adb8285612ab8565b601482019150612aeb8284612ab8565b601482019150819050939250505056fea26469706673582212202dccd2e8bb364d600712888886b564335d5e7aae50c8d60dfced6dbc5ff2cd1264736f6c63430008130033",
  "linkReferences": {},
  "deployedLinkReferences": {}
}