{
  "_format": "hh-sol-artifact-1",
  "contractName": "Wasap",
  "sourceName": "contracts/Wasap.sol",
  "abi": [
    {
      "inputs": [],
      "name": "CannotAddYourselfAsAContact",
      "type": "error"
    },
    {
      "inputs": [],
      "name": "CreateAnAccountFirst",
      "type": "error"
    },
    {
      "inputs": [],
      "name": "InvalidAddress",
      "type": "error"
    },
    {
      "inputs": [],
      "name": "NewContactIsNotRegistered",
      "type": "error"
    },
    {
      "inputs": [],
      "name": "UserAlreadyExist",
      "type": "error"
    },
    {
      "inputs": [],
      "name": "UserIsNotRegistered",
      "type": "error"
    },
    {
      "inputs": [],
      "name": "UserNameCannotBeEmpty",
      "type": "error"
    },
    {
      "inputs": [],
      "name": "UsersAlreadyContacts",
      "type": "error"
    },
    {
      "inputs": [],
      "name": "YouAreNotContactWithGivenUser",
      "type": "error"
    },
    {
      "anonymous": false,
      "inputs": [
        {
          "indexed": false,
          "internalType": "address",
          "name": "user",
          "type": "address"
        }
      ],
      "name": "AccountCreated",
      "type": "event"
    },
    {
      "anonymous": false,
      "inputs": [
        {
          "indexed": false,
          "internalType": "address",
          "name": "user",
          "type": "address"
        },
        {
          "indexed": false,
          "internalType": "address",
          "name": "contact",
          "type": "address"
        }
      ],
      "name": "ContactAdded",
      "type": "event"
    },
    {
      "anonymous": false,
      "inputs": [
        {
          "indexed": false,
          "internalType": "address",
          "name": "user",
          "type": "address"
        },
        {
          "indexed": false,
          "internalType": "address",
          "name": "contact",
          "type": "address"
        }
      ],
      "name": "ContactInfoUpdated",
      "type": "event"
    },
    {
      "anonymous": false,
      "inputs": [
        {
          "indexed": false,
          "internalType": "address",
          "name": "user",
          "type": "address"
        },
        {
          "indexed": false,
          "internalType": "address",
          "name": "contact",
          "type": "address"
        }
      ],
      "name": "MessageSent",
      "type": "event"
    },
    {
      "anonymous": false,
      "inputs": [
        {
          "indexed": false,
          "internalType": "address",
          "name": "user",
          "type": "address"
        }
      ],
      "name": "UserInfoUpdated",
      "type": "event"
    },
    {
      "stateMutability": "nonpayable",
      "type": "fallback"
    },
    {
      "inputs": [
        {
          "internalType": "address",
          "name": "_contactAddress",
          "type": "address"
        },
        {
          "internalType": "string",
          "name": "_contactName",
          "type": "string"
        }
      ],
      "name": "addContact",
      "outputs": [],
      "stateMutability": "nonpayable",
      "type": "function"
    },
    {
      "inputs": [
        {
          "internalType": "address",
          "name": "addressUser",
          "type": "address"
        }
      ],
      "name": "checkUserExists",
      "outputs": [
        {
          "internalType": "bool",
          "name": "",
          "type": "bool"
        }
      ],
      "stateMutability": "view",
      "type": "function"
    },
    {
      "inputs": [
        {
          "internalType": "string",
          "name": "_name",
          "type": "string"
        },
        {
          "internalType": "string",
          "name": "_avatar",
          "type": "string"
        }
      ],
      "name": "createAccount",
      "outputs": [],
      "stateMutability": "nonpayable",
      "type": "function"
    },
    {
      "inputs": [],
      "name": "getAllAppUsers",
      "outputs": [
        {
          "components": [
            {
              "internalType": "string",
              "name": "name",
              "type": "string"
            },
            {
              "internalType": "address",
              "name": "userAddress",
              "type": "address"
            }
          ],
          "internalType": "struct Wasap.AllUsers[]",
          "name": "",
          "type": "tuple[]"
        }
      ],
      "stateMutability": "view",
      "type": "function"
    },
    {
      "inputs": [],
      "name": "getUserContactList",
      "outputs": [
        {
          "components": [
            {
              "internalType": "address",
              "name": "contactAddress",
              "type": "address"
            },
            {
              "internalType": "string",
              "name": "name",
              "type": "string"
            },
            {
              "internalType": "string",
              "name": "avatar",
              "type": "string"
            }
          ],
          "internalType": "struct Wasap.ContactWithAvatar[]",
          "name": "",
          "type": "tuple[]"
        }
      ],
      "stateMutability": "view",
      "type": "function"
    },
    {
      "inputs": [
        {
          "internalType": "address",
          "name": "_address",
          "type": "address"
        }
      ],
      "name": "getUserInfo",
      "outputs": [
        {
          "internalType": "string",
          "name": "",
          "type": "string"
        },
        {
          "internalType": "string",
          "name": "",
          "type": "string"
        }
      ],
      "stateMutability": "view",
      "type": "function"
    },
    {
      "inputs": [
        {
          "internalType": "address",
          "name": "_contactAddress",
          "type": "address"
        }
      ],
      "name": "readMessages",
      "outputs": [
        {
          "components": [
            {
              "internalType": "address",
              "name": "sender",
              "type": "address"
            },
            {
              "internalType": "uint256",
              "name": "timestamp",
              "type": "uint256"
            },
            {
              "internalType": "string",
              "name": "text",
              "type": "string"
            }
          ],
          "internalType": "struct Wasap.Message[]",
          "name": "",
          "type": "tuple[]"
        }
      ],
      "stateMutability": "view",
      "type": "function"
    },
    {
      "inputs": [
        {
          "internalType": "address",
          "name": "_contactAddress",
          "type": "address"
        },
        {
          "internalType": "string",
          "name": "_text",
          "type": "string"
        }
      ],
      "name": "sendMessage",
      "outputs": [],
      "stateMutability": "nonpayable",
      "type": "function"
    },
    {
      "inputs": [
        {
          "internalType": "address",
          "name": "_contactAddress",
          "type": "address"
        },
        {
          "internalType": "string",
          "name": "_name",
          "type": "string"
        }
      ],
      "name": "updateContactName",
      "outputs": [],
      "stateMutability": "nonpayable",
      "type": "function"
    },
    {
      "inputs": [
        {
          "internalType": "string",
          "name": "_userAvatar",
          "type": "string"
        },
        {
          "internalType": "string",
          "name": "_userName",
          "type": "string"
        }
      ],
      "name": "updateUserInfo",
      "outputs": [],
      "stateMutability": "nonpayable",
      "type": "function"
    },
    {
      "stateMutability": "payable",
      "type": "receive"
    }
  ],
  "bytecode": "0x608060405234801561001057600080fd5b50612695806100206000396000f3fe6080604052600436106100955760003560e01c8063835852a511610059578063835852a5146102315780638361651d1461025a578063c444816414610285578063db6dd4f1146102ae578063de6f24bb146102d9576100da565b80630459ed7214610127578063133f50f51461016457806319289287146101a15780634b3fcab5146101ca5780636386c1c7146101f3576100da565b366100da576100d86040518060400160405280600781526020017f5265636569766500000000000000000000000000000000000000000000000000815250610302565b005b3480156100e657600080fd5b506101256040518060400160405280600881526020017f46616c6c6261636b000000000000000000000000000000000000000000000000815250610302565b005b34801561013357600080fd5b5061014e60048036038101906101499190611a47565b61039b565b60405161015b9190611c3e565b60405180910390f35b34801561017057600080fd5b5061018b60048036038101906101869190611a47565b61050e565b6040516101989190611c7b565b60405180910390f35b3480156101ad57600080fd5b506101c860048036038101906101c39190611cfb565b610568565b005b3480156101d657600080fd5b506101f160048036038101906101ec9190611cfb565b6107bf565b005b3480156101ff57600080fd5b5061021a60048036038101906102159190611a47565b6108a0565b604051610228929190611dc6565b60405180910390f35b34801561023d57600080fd5b5061025860048036038101906102539190611dfd565b610a87565b005b34801561026657600080fd5b5061026f610c1c565b60405161027c9190611f76565b60405180910390f35b34801561029157600080fd5b506102ac60048036038101906102a79190611dfd565b610f96565b005b3480156102ba57600080fd5b506102c3611282565b6040516102d09190612097565b60405180910390f35b3480156102e557600080fd5b5061030060048036038101906102fb9190611dfd565b6113c9565b005b6103988160405160240161031691906120b9565b6040516020818303038152906040527f41304fac000000000000000000000000000000000000000000000000000000007bffffffffffffffffffffffffffffffffffffffffffffffffffffffff19166020820180517bffffffffffffffffffffffffffffffffffffffffffffffffffffffff83818316178352505050506115f4565b50565b606060006103a9338461160e565b905060026000828152602001908152602001600020805480602002602001604051908101604052809291908181526020016000905b8282101561050257838290600052602060002090600302016040518060600160405290816000820160009054906101000a900473ffffffffffffffffffffffffffffffffffffffff1673ffffffffffffffffffffffffffffffffffffffff1673ffffffffffffffffffffffffffffffffffffffff168152602001600182015481526020016002820180546104719061210a565b80601f016020809104026020016040519081016040528092919081815260200182805461049d9061210a565b80156104ea5780601f106104bf576101008083540402835291602001916104ea565b820191906000526020600020905b8154815290600101906020018083116104cd57829003601f168201915b505050505081525050815260200190600101906103de565b50505050915050919050565b600080600160008473ffffffffffffffffffffffffffffffffffffffff1673ffffffffffffffffffffffffffffffffffffffff168152602001908152602001600020600101805461055e9061210a565b9050119050919050565b6105713361050e565b156105a8576040517f3ee20b6900000000000000000000000000000000000000000000000000000000815260040160405180910390fd5b600084849050036105e5576040517fa3be3df000000000000000000000000000000000000000000000000000000000815260040160405180910390fd5b8181600160003373ffffffffffffffffffffffffffffffffffffffff1673ffffffffffffffffffffffffffffffffffffffff1681526020019081526020016000206000019182610636929190612321565b508383600160003373ffffffffffffffffffffffffffffffffffffffff1673ffffffffffffffffffffffffffffffffffffffff1681526020019081526020016000206001019182610688929190612321565b506000604051806040016040528086868080601f016020809104026020016040519081016040528093929190818152602001838380828437600081840152601f19601f8201169050808301925050505050505081526020013373ffffffffffffffffffffffffffffffffffffffff168152509080600181540180825580915050600190039060005260206000209060020201600090919091909150600082015181600001908161073891906123f1565b5060208201518160010160006101000a81548173ffffffffffffffffffffffffffffffffffffffff021916908373ffffffffffffffffffffffffffffffffffffffff16021790555050507f805996f252884581e2f74cf3d2b03564d5ec26ccc90850ae12653dc1b72d1fa2336040516107b191906124d2565b60405180910390a150505050565b8181600160003373ffffffffffffffffffffffffffffffffffffffff1673ffffffffffffffffffffffffffffffffffffffff1681526020019081526020016000206001019182610810929190612321565b508383600160003373ffffffffffffffffffffffffffffffffffffffff1673ffffffffffffffffffffffffffffffffffffffff1681526020019081526020016000206000019182610862929190612321565b507fa267530518909239d6d9966f12bf391177dde455b3233f6166ab8cd424f17fd53360405161089291906124d2565b60405180910390a150505050565b6060806108ac3361050e565b6108e2576040517f88ce161b00000000000000000000000000000000000000000000000000000000815260040160405180910390fd5b600160008473ffffffffffffffffffffffffffffffffffffffff1673ffffffffffffffffffffffffffffffffffffffff168152602001908152602001600020600101600160008573ffffffffffffffffffffffffffffffffffffffff1673ffffffffffffffffffffffffffffffffffffffff1681526020019081526020016000206000018180546109729061210a565b80601f016020809104026020016040519081016040528092919081815260200182805461099e9061210a565b80156109eb5780601f106109c0576101008083540402835291602001916109eb565b820191906000526020600020905b8154815290600101906020018083116109ce57829003601f168201915b505050505091508080546109fe9061210a565b80601f0160208091040260200160405190810160405280929190818152602001828054610a2a9061210a565b8015610a775780601f10610a4c57610100808354040283529160200191610a77565b820191906000526020600020905b815481529060010190602001808311610a5a57829003601f168201915b5050505050905091509150915091565b60008282905003610ac4576040517fa3be3df000000000000000000000000000000000000000000000000000000000815260040160405180910390fd5b6000600160003373ffffffffffffffffffffffffffffffffffffffff1673ffffffffffffffffffffffffffffffffffffffff168152602001908152602001600020600201905060005b8180549050811015610bdc578473ffffffffffffffffffffffffffffffffffffffff16828281548110610b4357610b426124ed565b5b906000526020600020906002020160000160009054906101000a900473ffffffffffffffffffffffffffffffffffffffff1673ffffffffffffffffffffffffffffffffffffffff1603610bc9578383838381548110610ba557610ba46124ed565b5b90600052602060002090600202016001019182610bc3929190612321565b50610bdc565b8080610bd49061254b565b915050610b0d565b507f73ce70270a42e8d7bebf368ff404a5a3f63dbef22a76e261022c0069d042a2f53385604051610c0e929190612593565b60405180910390a150505050565b60606000600160003373ffffffffffffffffffffffffffffffffffffffff1673ffffffffffffffffffffffffffffffffffffffff168152602001908152602001600020600201805480602002602001604051908101604052809291908181526020016000905b82821015610d9c57838290600052602060002090600202016040518060400160405290816000820160009054906101000a900473ffffffffffffffffffffffffffffffffffffffff1673ffffffffffffffffffffffffffffffffffffffff1673ffffffffffffffffffffffffffffffffffffffff168152602001600182018054610d0b9061210a565b80601f0160208091040260200160405190810160405280929190818152602001828054610d379061210a565b8015610d845780601f10610d5957610100808354040283529160200191610d84565b820191906000526020600020905b815481529060010190602001808311610d6757829003601f168201915b50505050508152505081526020019060010190610c82565b5050505090506000815167ffffffffffffffff811115610dbf57610dbe612146565b5b604051908082528060200260200182016040528015610df857816020015b610de561199e565b815260200190600190039081610ddd5790505b50905060005b8251811015610f8d576040518060600160405280848381518110610e2557610e246124ed565b5b60200260200101516000015173ffffffffffffffffffffffffffffffffffffffff168152602001848381518110610e5f57610e5e6124ed565b5b602002602001015160200151815260200160016000868581518110610e8757610e866124ed565b5b60200260200101516000015173ffffffffffffffffffffffffffffffffffffffff1673ffffffffffffffffffffffffffffffffffffffff1681526020019081526020016000206000018054610edb9061210a565b80601f0160208091040260200160405190810160405280929190818152602001828054610f079061210a565b8015610f545780601f10610f2957610100808354040283529160200191610f54565b820191906000526020600020905b815481529060010190602001808311610f3757829003601f168201915b5050505050815250828281518110610f6f57610f6e6124ed565b5b60200260200101819052508080610f859061254b565b915050610dfe565b50809250505090565b610f9f3361050e565b610fd5576040517fe948a3c000000000000000000000000000000000000000000000000000000000815260040160405180910390fd5b610fde8361050e565b611014576040517f62992a7d00000000000000000000000000000000000000000000000000000000815260040160405180910390fd5b8273ffffffffffffffffffffffffffffffffffffffff163373ffffffffffffffffffffffffffffffffffffffff1603611079576040517f1b938d2700000000000000000000000000000000000000000000000000000000815260040160405180910390fd5b61108333846116a6565b156110ba576040517feac2e91600000000000000000000000000000000000000000000000000000000815260040160405180910390fd5b600073ffffffffffffffffffffffffffffffffffffffff168373ffffffffffffffffffffffffffffffffffffffff1603611120576040517fe6c4247b00000000000000000000000000000000000000000000000000000000815260040160405180910390fd5b61116f338484848080601f016020809104026020016040519081016040528093929190818152602001838380828437600081840152601f19601f82011690508083019250505050505050611878565b6112448333600160003373ffffffffffffffffffffffffffffffffffffffff1673ffffffffffffffffffffffffffffffffffffffff16815260200190815260200160002060010180546111c19061210a565b80601f01602080910402602001604051908101604052809291908181526020018280546111ed9061210a565b801561123a5780601f1061120f5761010080835404028352916020019161123a565b820191906000526020600020905b81548152906001019060200180831161121d57829003601f168201915b5050505050611878565b7f991da500dc9f910ce2a64c3d13783d3f75d912d123ae2d8334ad0a817c91f23b3384604051611275929190612593565b60405180910390a1505050565b60606000805480602002602001604051908101604052809291908181526020016000905b828210156113c057838290600052602060002090600202016040518060400160405290816000820180546112d99061210a565b80601f01602080910402602001604051908101604052809291908181526020018280546113059061210a565b80156113525780601f1061132757610100808354040283529160200191611352565b820191906000526020600020905b81548152906001019060200180831161133557829003601f168201915b505050505081526020016001820160009054906101000a900473ffffffffffffffffffffffffffffffffffffffff1673ffffffffffffffffffffffffffffffffffffffff1673ffffffffffffffffffffffffffffffffffffffff1681525050815260200190600101906112a6565b50505050905090565b6113d23361050e565b611408576040517fe948a3c000000000000000000000000000000000000000000000000000000000815260040160405180910390fd5b6114118361050e565b611447576040517f88ce161b00000000000000000000000000000000000000000000000000000000815260040160405180910390fd5b61145133846116a6565b611487576040517f926b299f00000000000000000000000000000000000000000000000000000000815260040160405180910390fd5b6000611493338561160e565b9050600060405180606001604052803373ffffffffffffffffffffffffffffffffffffffff16815260200142815260200185858080601f016020809104026020016040519081016040528093929190818152602001838380828437600081840152601f19601f8201169050808301925050505050505081525090506002600083815260200190815260200160002081908060018154018082558091505060019003906000526020600020906003020160009091909190915060008201518160000160006101000a81548173ffffffffffffffffffffffffffffffffffffffff021916908373ffffffffffffffffffffffffffffffffffffffff1602179055506020820151816001015560408201518160020190816115b191906123f1565b5050507f921d068ef716f8cffdc14d917b9e3b77c957cd11d308c2c4f92732cc0190f86133866040516115e5929190612593565b60405180910390a15050505050565b61160b81611603611972611993565b63ffffffff16565b50565b60008173ffffffffffffffffffffffffffffffffffffffff168373ffffffffffffffffffffffffffffffffffffffff161015611674578282604051602001611657929190612604565b6040516020818303038152906040528051906020012090506116a0565b8183604051602001611687929190612604565b6040516020818303038152906040528051906020012090505b92915050565b6000600160008373ffffffffffffffffffffffffffffffffffffffff1673ffffffffffffffffffffffffffffffffffffffff16815260200190815260200160002060020180549050600160008573ffffffffffffffffffffffffffffffffffffffff1673ffffffffffffffffffffffffffffffffffffffff168152602001908152602001600020600201805490501115611747576000839050829350809250505b60005b600160008573ffffffffffffffffffffffffffffffffffffffff1673ffffffffffffffffffffffffffffffffffffffff1681526020019081526020016000206002018054905081101561186c578273ffffffffffffffffffffffffffffffffffffffff16600160008673ffffffffffffffffffffffffffffffffffffffff1673ffffffffffffffffffffffffffffffffffffffff1681526020019081526020016000206002018281548110611802576118016124ed565b5b906000526020600020906002020160000160009054906101000a900473ffffffffffffffffffffffffffffffffffffffff1673ffffffffffffffffffffffffffffffffffffffff1603611859576001915050611872565b80806118649061254b565b91505061174a565b50600090505b92915050565b600160008473ffffffffffffffffffffffffffffffffffffffff1673ffffffffffffffffffffffffffffffffffffffff16815260200190815260200160002060020160405180604001604052808473ffffffffffffffffffffffffffffffffffffffff16815260200183815250908060018154018082558091505060019003906000526020600020906002020160009091909190915060008201518160000160006101000a81548173ffffffffffffffffffffffffffffffffffffffff021916908373ffffffffffffffffffffffffffffffffffffffff160217905550602082015181600101908161196a91906123f1565b505050505050565b60006a636f6e736f6c652e6c6f679050600080835160208501845afa505050565b6119d5819050919050565b6040518060600160405280600073ffffffffffffffffffffffffffffffffffffffff16815260200160608152602001606081525090565b6119dd612630565b565b600080fd5b600080fd5b600073ffffffffffffffffffffffffffffffffffffffff82169050919050565b6000611a14826119e9565b9050919050565b611a2481611a09565b8114611a2f57600080fd5b50565b600081359050611a4181611a1b565b92915050565b600060208284031215611a5d57611a5c6119df565b5b6000611a6b84828501611a32565b91505092915050565b600081519050919050565b600082825260208201905092915050565b6000819050602082019050919050565b611aa981611a09565b82525050565b6000819050919050565b611ac281611aaf565b82525050565b600081519050919050565b600082825260208201905092915050565b60005b83811015611b02578082015181840152602081019050611ae7565b60008484015250505050565b6000601f19601f8301169050919050565b6000611b2a82611ac8565b611b348185611ad3565b9350611b44818560208601611ae4565b611b4d81611b0e565b840191505092915050565b6000606083016000830151611b706000860182611aa0565b506020830151611b836020860182611ab9565b5060408301518482036040860152611b9b8282611b1f565b9150508091505092915050565b6000611bb48383611b58565b905092915050565b6000602082019050919050565b6000611bd482611a74565b611bde8185611a7f565b935083602082028501611bf085611a90565b8060005b85811015611c2c5784840389528151611c0d8582611ba8565b9450611c1883611bbc565b925060208a01995050600181019050611bf4565b50829750879550505050505092915050565b60006020820190508181036000830152611c588184611bc9565b905092915050565b60008115159050919050565b611c7581611c60565b82525050565b6000602082019050611c906000830184611c6c565b92915050565b600080fd5b600080fd5b600080fd5b60008083601f840112611cbb57611cba611c96565b5b8235905067ffffffffffffffff811115611cd857611cd7611c9b565b5b602083019150836001820283011115611cf457611cf3611ca0565b5b9250929050565b60008060008060408587031215611d1557611d146119df565b5b600085013567ffffffffffffffff811115611d3357611d326119e4565b5b611d3f87828801611ca5565b9450945050602085013567ffffffffffffffff811115611d6257611d616119e4565b5b611d6e87828801611ca5565b925092505092959194509250565b600082825260208201905092915050565b6000611d9882611ac8565b611da28185611d7c565b9350611db2818560208601611ae4565b611dbb81611b0e565b840191505092915050565b60006040820190508181036000830152611de08185611d8d565b90508181036020830152611df48184611d8d565b90509392505050565b600080600060408486031215611e1657611e156119df565b5b6000611e2486828701611a32565b935050602084013567ffffffffffffffff811115611e4557611e446119e4565b5b611e5186828701611ca5565b92509250509250925092565b600081519050919050565b600082825260208201905092915050565b6000819050602082019050919050565b6000606083016000830151611ea16000860182611aa0565b5060208301518482036020860152611eb98282611b1f565b91505060408301518482036040860152611ed38282611b1f565b9150508091505092915050565b6000611eec8383611e89565b905092915050565b6000602082019050919050565b6000611f0c82611e5d565b611f168185611e68565b935083602082028501611f2885611e79565b8060005b85811015611f645784840389528151611f458582611ee0565b9450611f5083611ef4565b925060208a01995050600181019050611f2c565b50829750879550505050505092915050565b60006020820190508181036000830152611f908184611f01565b905092915050565b600081519050919050565b600082825260208201905092915050565b6000819050602082019050919050565b60006040830160008301518482036000860152611fe18282611b1f565b9150506020830151611ff66020860182611aa0565b508091505092915050565b600061200d8383611fc4565b905092915050565b6000602082019050919050565b600061202d82611f98565b6120378185611fa3565b93508360208202850161204985611fb4565b8060005b8581101561208557848403895281516120668582612001565b945061207183612015565b925060208a0199505060018101905061204d565b50829750879550505050505092915050565b600060208201905081810360008301526120b18184612022565b905092915050565b600060208201905081810360008301526120d38184611d8d565b905092915050565b7f4e487b7100000000000000000000000000000000000000000000000000000000600052602260045260246000fd5b6000600282049050600182168061212257607f821691505b602082108103612135576121346120db565b5b50919050565b600082905092915050565b7f4e487b7100000000000000000000000000000000000000000000000000000000600052604160045260246000fd5b60008190508160005260206000209050919050565b60006020601f8301049050919050565b600082821b905092915050565b6000600883026121d77fffffffffffffffffffffffffffffffffffffffffffffffffffffffffffffffff8261219a565b6121e1868361219a565b95508019841693508086168417925050509392505050565b6000819050919050565b600061221e61221961221484611aaf565b6121f9565b611aaf565b9050919050565b6000819050919050565b61223883612203565b61224c61224482612225565b8484546121a7565b825550505050565b600090565b612261612254565b61226c81848461222f565b505050565b5b8181101561229057612285600082612259565b600181019050612272565b5050565b601f8211156122d5576122a681612175565b6122af8461218a565b810160208510156122be578190505b6122d26122ca8561218a565b830182612271565b50505b505050565b600082821c905092915050565b60006122f8600019846008026122da565b1980831691505092915050565b600061231183836122e7565b9150826002028217905092915050565b61232b838361213b565b67ffffffffffffffff81111561234457612343612146565b5b61234e825461210a565b612359828285612294565b6000601f8311600181146123885760008415612376578287013590505b6123808582612305565b8655506123e8565b601f19841661239686612175565b60005b828110156123be57848901358255600182019150602085019450602081019050612399565b868310156123db57848901356123d7601f8916826122e7565b8355505b6001600288020188555050505b50505050505050565b6123fa82611ac8565b67ffffffffffffffff81111561241357612412612146565b5b61241d825461210a565b612428828285612294565b600060209050601f83116001811461245b5760008415612449578287015190505b6124538582612305565b8655506124bb565b601f19841661246986612175565b60005b828110156124915784890151825560018201915060208501945060208101905061246c565b868310156124ae57848901516124aa601f8916826122e7565b8355505b6001600288020188555050505b505050505050565b6124cc81611a09565b82525050565b60006020820190506124e760008301846124c3565b92915050565b7f4e487b7100000000000000000000000000000000000000000000000000000000600052603260045260246000fd5b7f4e487b7100000000000000000000000000000000000000000000000000000000600052601160045260246000fd5b600061255682611aaf565b91507fffffffffffffffffffffffffffffffffffffffffffffffffffffffffffffffff82036125885761258761251c565b5b600182019050919050565b60006040820190506125a860008301856124c3565b6125b560208301846124c3565b9392505050565b60008160601b9050919050565b60006125d4826125bc565b9050919050565b60006125e6826125c9565b9050919050565b6125fe6125f982611a09565b6125db565b82525050565b600061261082856125ed565b60148201915061262082846125ed565b6014820191508190509392505050565b7f4e487b7100000000000000000000000000000000000000000000000000000000600052605160045260246000fdfea2646970667358221220e484229a3cf46cd571acb7abfcefecb3474a3c3fd067dcf437d202cf5a83f73e64736f6c63430008130033",
  "linkReferences": {},
  "deployedLinkReferences": {}
}