{
  "_format": "hh-sol-artifact-1",
  "contractName": "Wasap",
  "sourceName": "contracts/Wasap.sol",
  "abi": [
    {
      "inputs": [],
      "name": "CannotAddYourselfAsAContact",
      "type": "error"
    },
    {
      "inputs": [],
      "name": "CreateAnAccountFirst",
      "type": "error"
    },
    {
      "inputs": [],
      "name": "InvalidAddress",
      "type": "error"
    },
    {
      "inputs": [],
      "name": "NewContactIsNotRegistered",
      "type": "error"
    },
    {
      "inputs": [],
      "name": "UserAlreadyExist",
      "type": "error"
    },
    {
      "inputs": [],
      "name": "UserIsNotRegistered",
      "type": "error"
    },
    {
      "inputs": [],
      "name": "UserNameCannotBeEmpty",
      "type": "error"
    },
    {
      "inputs": [],
      "name": "UsersAlreadyContacts",
      "type": "error"
    },
    {
      "inputs": [],
      "name": "YouAreNotContactWithGivenUser",
      "type": "error"
    },
    {
      "anonymous": false,
      "inputs": [
        {
          "indexed": false,
          "internalType": "address",
          "name": "user",
          "type": "address"
        }
      ],
      "name": "AccountCreated",
      "type": "event"
    },
    {
      "anonymous": false,
      "inputs": [
        {
          "indexed": false,
          "internalType": "address",
          "name": "user",
          "type": "address"
        },
        {
          "indexed": false,
          "internalType": "address",
          "name": "contact",
          "type": "address"
        }
      ],
      "name": "ContactAdded",
      "type": "event"
    },
    {
      "anonymous": false,
      "inputs": [
        {
          "indexed": false,
          "internalType": "address",
          "name": "user",
          "type": "address"
        },
        {
          "indexed": false,
          "internalType": "address",
          "name": "contact",
          "type": "address"
        }
      ],
      "name": "ContactInfoUpdated",
      "type": "event"
    },
    {
      "anonymous": false,
      "inputs": [
        {
          "indexed": false,
          "internalType": "address",
          "name": "user",
          "type": "address"
        },
        {
          "indexed": false,
          "internalType": "address",
          "name": "contact",
          "type": "address"
        }
      ],
      "name": "MessageSent",
      "type": "event"
    },
    {
      "anonymous": false,
      "inputs": [
        {
          "indexed": false,
          "internalType": "address",
          "name": "user",
          "type": "address"
        }
      ],
      "name": "UserInfoUpdated",
      "type": "event"
    },
    {
      "stateMutability": "nonpayable",
      "type": "fallback"
    },
    {
      "inputs": [
        {
          "internalType": "address",
          "name": "_contactAddress",
          "type": "address"
        },
        {
          "internalType": "string",
          "name": "_contactName",
          "type": "string"
        }
      ],
      "name": "addContact",
      "outputs": [],
      "stateMutability": "nonpayable",
      "type": "function"
    },
    {
      "inputs": [
        {
          "internalType": "address",
          "name": "addressUser",
          "type": "address"
        }
      ],
      "name": "checkUserExists",
      "outputs": [
        {
          "internalType": "bool",
          "name": "",
          "type": "bool"
        }
      ],
      "stateMutability": "view",
      "type": "function"
    },
    {
      "inputs": [
        {
          "internalType": "string",
          "name": "_name",
          "type": "string"
        },
        {
          "internalType": "string",
          "name": "_avatar",
          "type": "string"
        }
      ],
      "name": "createAccount",
      "outputs": [],
      "stateMutability": "nonpayable",
      "type": "function"
    },
    {
      "inputs": [],
      "name": "getAllAppUsers",
      "outputs": [
        {
          "components": [
            {
              "internalType": "string",
              "name": "name",
              "type": "string"
            },
            {
              "internalType": "address",
              "name": "userAddress",
              "type": "address"
            }
          ],
          "internalType": "struct Wasap.AllUsers[]",
          "name": "",
          "type": "tuple[]"
        }
      ],
      "stateMutability": "view",
      "type": "function"
    },
    {
      "inputs": [],
      "name": "getUserContactList",
      "outputs": [
        {
          "components": [
            {
              "internalType": "address",
              "name": "contactAddress",
              "type": "address"
            },
            {
              "internalType": "string",
              "name": "name",
              "type": "string"
            },
            {
              "internalType": "string",
              "name": "avatar",
              "type": "string"
            }
          ],
          "internalType": "struct Wasap.ContactWithAvatar[]",
          "name": "",
          "type": "tuple[]"
        }
      ],
      "stateMutability": "view",
      "type": "function"
    },
    {
      "inputs": [
        {
          "internalType": "address",
          "name": "_address",
          "type": "address"
        }
      ],
      "name": "getUserInfo",
      "outputs": [
        {
          "internalType": "string",
          "name": "name",
          "type": "string"
        },
        {
          "internalType": "string",
          "name": "avatar",
          "type": "string"
        }
      ],
      "stateMutability": "view",
      "type": "function"
    },
    {
      "inputs": [
        {
          "internalType": "address",
          "name": "_contactAddress",
          "type": "address"
        }
      ],
      "name": "readMessages",
      "outputs": [
        {
          "components": [
            {
              "internalType": "address",
              "name": "sender",
              "type": "address"
            },
            {
              "internalType": "uint256",
              "name": "timestamp",
              "type": "uint256"
            },
            {
              "internalType": "string",
              "name": "text",
              "type": "string"
            }
          ],
          "internalType": "struct Wasap.Message[]",
          "name": "",
          "type": "tuple[]"
        }
      ],
      "stateMutability": "view",
      "type": "function"
    },
    {
      "inputs": [
        {
          "internalType": "address",
          "name": "_contactAddress",
          "type": "address"
        },
        {
          "internalType": "string",
          "name": "_text",
          "type": "string"
        }
      ],
      "name": "sendMessage",
      "outputs": [],
      "stateMutability": "nonpayable",
      "type": "function"
    },
    {
      "inputs": [
        {
          "internalType": "address",
          "name": "_contactAddress",
          "type": "address"
        },
        {
          "internalType": "string",
          "name": "_name",
          "type": "string"
        }
      ],
      "name": "updateContactName",
      "outputs": [],
      "stateMutability": "nonpayable",
      "type": "function"
    },
    {
      "inputs": [
        {
          "internalType": "string",
          "name": "_userAvatar",
          "type": "string"
        },
        {
          "internalType": "string",
          "name": "_userName",
          "type": "string"
        }
      ],
      "name": "updateUserInfo",
      "outputs": [],
      "stateMutability": "nonpayable",
      "type": "function"
    },
    {
      "stateMutability": "payable",
      "type": "receive"
    }
  ],
  "bytecode": "0x608060405234801561001057600080fd5b506124de806100206000396000f3fe6080604052600436106100955760003560e01c8063835852a511610059578063835852a5146101b45780638361651d146101dd578063c444816414610208578063db6dd4f114610231578063de6f24bb1461025c5761009c565b80630459ed72146100aa578063133f50f5146100e757806319289287146101245780634b3fcab51461014d5780636386c1c7146101765761009c565b3661009c57005b3480156100a857600080fd5b005b3480156100b657600080fd5b506100d160048036038101906100cc91906118e1565b610285565b6040516100de9190611ad8565b60405180910390f35b3480156100f357600080fd5b5061010e600480360381019061010991906118e1565b6103f8565b60405161011b9190611b15565b60405180910390f35b34801561013057600080fd5b5061014b60048036038101906101469190611b95565b610452565b005b34801561015957600080fd5b50610174600480360381019061016f9190611b95565b6106a9565b005b34801561018257600080fd5b5061019d600480360381019061019891906118e1565b61078a565b6040516101ab929190611c60565b60405180910390f35b3480156101c057600080fd5b506101db60048036038101906101d69190611c97565b610971565b005b3480156101e957600080fd5b506101f2610b06565b6040516101ff9190611e10565b60405180910390f35b34801561021457600080fd5b5061022f600480360381019061022a9190611c97565b610e80565b005b34801561023d57600080fd5b5061024661116c565b6040516102539190611f31565b60405180910390f35b34801561026857600080fd5b50610283600480360381019061027e9190611c97565b6112b3565b005b6060600061029333846114de565b905060026000828152602001908152602001600020805480602002602001604051908101604052809291908181526020016000905b828210156103ec57838290600052602060002090600302016040518060600160405290816000820160009054906101000a900473ffffffffffffffffffffffffffffffffffffffff1673ffffffffffffffffffffffffffffffffffffffff1673ffffffffffffffffffffffffffffffffffffffff1681526020016001820154815260200160028201805461035b90611f82565b80601f016020809104026020016040519081016040528092919081815260200182805461038790611f82565b80156103d45780601f106103a9576101008083540402835291602001916103d4565b820191906000526020600020905b8154815290600101906020018083116103b757829003601f168201915b505050505081525050815260200190600101906102c8565b50505050915050919050565b600080600160008473ffffffffffffffffffffffffffffffffffffffff1673ffffffffffffffffffffffffffffffffffffffff168152602001908152602001600020600101805461044890611f82565b9050119050919050565b61045b336103f8565b15610492576040517f3ee20b6900000000000000000000000000000000000000000000000000000000815260040160405180910390fd5b600084849050036104cf576040517fa3be3df000000000000000000000000000000000000000000000000000000000815260040160405180910390fd5b8181600160003373ffffffffffffffffffffffffffffffffffffffff1673ffffffffffffffffffffffffffffffffffffffff1681526020019081526020016000206000019182610520929190612199565b508383600160003373ffffffffffffffffffffffffffffffffffffffff1673ffffffffffffffffffffffffffffffffffffffff1681526020019081526020016000206001019182610572929190612199565b506000604051806040016040528086868080601f016020809104026020016040519081016040528093929190818152602001838380828437600081840152601f19601f8201169050808301925050505050505081526020013373ffffffffffffffffffffffffffffffffffffffff16815250908060018154018082558091505060019003906000526020600020906002020160009091909190915060008201518160000190816106229190612269565b5060208201518160010160006101000a81548173ffffffffffffffffffffffffffffffffffffffff021916908373ffffffffffffffffffffffffffffffffffffffff16021790555050507f805996f252884581e2f74cf3d2b03564d5ec26ccc90850ae12653dc1b72d1fa23360405161069b919061234a565b60405180910390a150505050565b8181600160003373ffffffffffffffffffffffffffffffffffffffff1673ffffffffffffffffffffffffffffffffffffffff16815260200190815260200160002060010191826106fa929190612199565b508383600160003373ffffffffffffffffffffffffffffffffffffffff1673ffffffffffffffffffffffffffffffffffffffff168152602001908152602001600020600001918261074c929190612199565b507fa267530518909239d6d9966f12bf391177dde455b3233f6166ab8cd424f17fd53360405161077c919061234a565b60405180910390a150505050565b606080610796336103f8565b6107cc576040517f88ce161b00000000000000000000000000000000000000000000000000000000815260040160405180910390fd5b600160008473ffffffffffffffffffffffffffffffffffffffff1673ffffffffffffffffffffffffffffffffffffffff168152602001908152602001600020600101600160008573ffffffffffffffffffffffffffffffffffffffff1673ffffffffffffffffffffffffffffffffffffffff16815260200190815260200160002060000181805461085c90611f82565b80601f016020809104026020016040519081016040528092919081815260200182805461088890611f82565b80156108d55780601f106108aa576101008083540402835291602001916108d5565b820191906000526020600020905b8154815290600101906020018083116108b857829003601f168201915b505050505091508080546108e890611f82565b80601f016020809104026020016040519081016040528092919081815260200182805461091490611f82565b80156109615780601f1061093657610100808354040283529160200191610961565b820191906000526020600020905b81548152906001019060200180831161094457829003601f168201915b5050505050905091509150915091565b600082829050036109ae576040517fa3be3df000000000000000000000000000000000000000000000000000000000815260040160405180910390fd5b6000600160003373ffffffffffffffffffffffffffffffffffffffff1673ffffffffffffffffffffffffffffffffffffffff168152602001908152602001600020600201905060005b8180549050811015610ac6578473ffffffffffffffffffffffffffffffffffffffff16828281548110610a2d57610a2c612365565b5b906000526020600020906002020160000160009054906101000a900473ffffffffffffffffffffffffffffffffffffffff1673ffffffffffffffffffffffffffffffffffffffff1603610ab3578383838381548110610a8f57610a8e612365565b5b90600052602060002090600202016001019182610aad929190612199565b50610ac6565b8080610abe906123c3565b9150506109f7565b507f73ce70270a42e8d7bebf368ff404a5a3f63dbef22a76e261022c0069d042a2f53385604051610af892919061240b565b60405180910390a150505050565b60606000600160003373ffffffffffffffffffffffffffffffffffffffff1673ffffffffffffffffffffffffffffffffffffffff168152602001908152602001600020600201805480602002602001604051908101604052809291908181526020016000905b82821015610c8657838290600052602060002090600202016040518060400160405290816000820160009054906101000a900473ffffffffffffffffffffffffffffffffffffffff1673ffffffffffffffffffffffffffffffffffffffff1673ffffffffffffffffffffffffffffffffffffffff168152602001600182018054610bf590611f82565b80601f0160208091040260200160405190810160405280929190818152602001828054610c2190611f82565b8015610c6e5780601f10610c4357610100808354040283529160200191610c6e565b820191906000526020600020905b815481529060010190602001808311610c5157829003601f168201915b50505050508152505081526020019060010190610b6c565b5050505090506000815167ffffffffffffffff811115610ca957610ca8611fbe565b5b604051908082528060200260200182016040528015610ce257816020015b610ccf611842565b815260200190600190039081610cc75790505b50905060005b8251811015610e77576040518060600160405280848381518110610d0f57610d0e612365565b5b60200260200101516000015173ffffffffffffffffffffffffffffffffffffffff168152602001848381518110610d4957610d48612365565b5b602002602001015160200151815260200160016000868581518110610d7157610d70612365565b5b60200260200101516000015173ffffffffffffffffffffffffffffffffffffffff1673ffffffffffffffffffffffffffffffffffffffff1681526020019081526020016000206000018054610dc590611f82565b80601f0160208091040260200160405190810160405280929190818152602001828054610df190611f82565b8015610e3e5780601f10610e1357610100808354040283529160200191610e3e565b820191906000526020600020905b815481529060010190602001808311610e2157829003601f168201915b5050505050815250828281518110610e5957610e58612365565b5b60200260200101819052508080610e6f906123c3565b915050610ce8565b50809250505090565b610e89336103f8565b610ebf576040517fe948a3c000000000000000000000000000000000000000000000000000000000815260040160405180910390fd5b610ec8836103f8565b610efe576040517f62992a7d00000000000000000000000000000000000000000000000000000000815260040160405180910390fd5b8273ffffffffffffffffffffffffffffffffffffffff163373ffffffffffffffffffffffffffffffffffffffff1603610f63576040517f1b938d2700000000000000000000000000000000000000000000000000000000815260040160405180910390fd5b610f6d3384611576565b15610fa4576040517feac2e91600000000000000000000000000000000000000000000000000000000815260040160405180910390fd5b600073ffffffffffffffffffffffffffffffffffffffff168373ffffffffffffffffffffffffffffffffffffffff160361100a576040517fe6c4247b00000000000000000000000000000000000000000000000000000000815260040160405180910390fd5b611059338484848080601f016020809104026020016040519081016040528093929190818152602001838380828437600081840152601f19601f82011690508083019250505050505050611748565b61112e8333600160003373ffffffffffffffffffffffffffffffffffffffff1673ffffffffffffffffffffffffffffffffffffffff16815260200190815260200160002060010180546110ab90611f82565b80601f01602080910402602001604051908101604052809291908181526020018280546110d790611f82565b80156111245780601f106110f957610100808354040283529160200191611124565b820191906000526020600020905b81548152906001019060200180831161110757829003601f168201915b5050505050611748565b7f991da500dc9f910ce2a64c3d13783d3f75d912d123ae2d8334ad0a817c91f23b338460405161115f92919061240b565b60405180910390a1505050565b60606000805480602002602001604051908101604052809291908181526020016000905b828210156112aa57838290600052602060002090600202016040518060400160405290816000820180546111c390611f82565b80601f01602080910402602001604051908101604052809291908181526020018280546111ef90611f82565b801561123c5780601f106112115761010080835404028352916020019161123c565b820191906000526020600020905b81548152906001019060200180831161121f57829003601f168201915b505050505081526020016001820160009054906101000a900473ffffffffffffffffffffffffffffffffffffffff1673ffffffffffffffffffffffffffffffffffffffff1673ffffffffffffffffffffffffffffffffffffffff168152505081526020019060010190611190565b50505050905090565b6112bc336103f8565b6112f2576040517fe948a3c000000000000000000000000000000000000000000000000000000000815260040160405180910390fd5b6112fb836103f8565b611331576040517f88ce161b00000000000000000000000000000000000000000000000000000000815260040160405180910390fd5b61133b3384611576565b611371576040517f926b299f00000000000000000000000000000000000000000000000000000000815260040160405180910390fd5b600061137d33856114de565b9050600060405180606001604052803373ffffffffffffffffffffffffffffffffffffffff16815260200142815260200185858080601f016020809104026020016040519081016040528093929190818152602001838380828437600081840152601f19601f8201169050808301925050505050505081525090506002600083815260200190815260200160002081908060018154018082558091505060019003906000526020600020906003020160009091909190915060008201518160000160006101000a81548173ffffffffffffffffffffffffffffffffffffffff021916908373ffffffffffffffffffffffffffffffffffffffff16021790555060208201518160010155604082015181600201908161149b9190612269565b5050507f921d068ef716f8cffdc14d917b9e3b77c957cd11d308c2c4f92732cc0190f86133866040516114cf92919061240b565b60405180910390a15050505050565b60008173ffffffffffffffffffffffffffffffffffffffff168373ffffffffffffffffffffffffffffffffffffffff16101561154457828260405160200161152792919061247c565b604051602081830303815290604052805190602001209050611570565b818360405160200161155792919061247c565b6040516020818303038152906040528051906020012090505b92915050565b6000600160008373ffffffffffffffffffffffffffffffffffffffff1673ffffffffffffffffffffffffffffffffffffffff16815260200190815260200160002060020180549050600160008573ffffffffffffffffffffffffffffffffffffffff1673ffffffffffffffffffffffffffffffffffffffff168152602001908152602001600020600201805490501115611617576000839050829350809250505b60005b600160008573ffffffffffffffffffffffffffffffffffffffff1673ffffffffffffffffffffffffffffffffffffffff1681526020019081526020016000206002018054905081101561173c578273ffffffffffffffffffffffffffffffffffffffff16600160008673ffffffffffffffffffffffffffffffffffffffff1673ffffffffffffffffffffffffffffffffffffffff16815260200190815260200160002060020182815481106116d2576116d1612365565b5b906000526020600020906002020160000160009054906101000a900473ffffffffffffffffffffffffffffffffffffffff1673ffffffffffffffffffffffffffffffffffffffff1603611729576001915050611742565b8080611734906123c3565b91505061161a565b50600090505b92915050565b600160008473ffffffffffffffffffffffffffffffffffffffff1673ffffffffffffffffffffffffffffffffffffffff16815260200190815260200160002060020160405180604001604052808473ffffffffffffffffffffffffffffffffffffffff16815260200183815250908060018154018082558091505060019003906000526020600020906002020160009091909190915060008201518160000160006101000a81548173ffffffffffffffffffffffffffffffffffffffff021916908373ffffffffffffffffffffffffffffffffffffffff160217905550602082015181600101908161183a9190612269565b505050505050565b6040518060600160405280600073ffffffffffffffffffffffffffffffffffffffff16815260200160608152602001606081525090565b600080fd5b600080fd5b600073ffffffffffffffffffffffffffffffffffffffff82169050919050565b60006118ae82611883565b9050919050565b6118be816118a3565b81146118c957600080fd5b50565b6000813590506118db816118b5565b92915050565b6000602082840312156118f7576118f6611879565b5b6000611905848285016118cc565b91505092915050565b600081519050919050565b600082825260208201905092915050565b6000819050602082019050919050565b611943816118a3565b82525050565b6000819050919050565b61195c81611949565b82525050565b600081519050919050565b600082825260208201905092915050565b60005b8381101561199c578082015181840152602081019050611981565b60008484015250505050565b6000601f19601f8301169050919050565b60006119c482611962565b6119ce818561196d565b93506119de81856020860161197e565b6119e7816119a8565b840191505092915050565b6000606083016000830151611a0a600086018261193a565b506020830151611a1d6020860182611953565b5060408301518482036040860152611a3582826119b9565b9150508091505092915050565b6000611a4e83836119f2565b905092915050565b6000602082019050919050565b6000611a6e8261190e565b611a788185611919565b935083602082028501611a8a8561192a565b8060005b85811015611ac65784840389528151611aa78582611a42565b9450611ab283611a56565b925060208a01995050600181019050611a8e565b50829750879550505050505092915050565b60006020820190508181036000830152611af28184611a63565b905092915050565b60008115159050919050565b611b0f81611afa565b82525050565b6000602082019050611b2a6000830184611b06565b92915050565b600080fd5b600080fd5b600080fd5b60008083601f840112611b5557611b54611b30565b5b8235905067ffffffffffffffff811115611b7257611b71611b35565b5b602083019150836001820283011115611b8e57611b8d611b3a565b5b9250929050565b60008060008060408587031215611baf57611bae611879565b5b600085013567ffffffffffffffff811115611bcd57611bcc61187e565b5b611bd987828801611b3f565b9450945050602085013567ffffffffffffffff811115611bfc57611bfb61187e565b5b611c0887828801611b3f565b925092505092959194509250565b600082825260208201905092915050565b6000611c3282611962565b611c3c8185611c16565b9350611c4c81856020860161197e565b611c55816119a8565b840191505092915050565b60006040820190508181036000830152611c7a8185611c27565b90508181036020830152611c8e8184611c27565b90509392505050565b600080600060408486031215611cb057611caf611879565b5b6000611cbe868287016118cc565b935050602084013567ffffffffffffffff811115611cdf57611cde61187e565b5b611ceb86828701611b3f565b92509250509250925092565b600081519050919050565b600082825260208201905092915050565b6000819050602082019050919050565b6000606083016000830151611d3b600086018261193a565b5060208301518482036020860152611d5382826119b9565b91505060408301518482036040860152611d6d82826119b9565b9150508091505092915050565b6000611d868383611d23565b905092915050565b6000602082019050919050565b6000611da682611cf7565b611db08185611d02565b935083602082028501611dc285611d13565b8060005b85811015611dfe5784840389528151611ddf8582611d7a565b9450611dea83611d8e565b925060208a01995050600181019050611dc6565b50829750879550505050505092915050565b60006020820190508181036000830152611e2a8184611d9b565b905092915050565b600081519050919050565b600082825260208201905092915050565b6000819050602082019050919050565b60006040830160008301518482036000860152611e7b82826119b9565b9150506020830151611e90602086018261193a565b508091505092915050565b6000611ea78383611e5e565b905092915050565b6000602082019050919050565b6000611ec782611e32565b611ed18185611e3d565b935083602082028501611ee385611e4e565b8060005b85811015611f1f5784840389528151611f008582611e9b565b9450611f0b83611eaf565b925060208a01995050600181019050611ee7565b50829750879550505050505092915050565b60006020820190508181036000830152611f4b8184611ebc565b905092915050565b7f4e487b7100000000000000000000000000000000000000000000000000000000600052602260045260246000fd5b60006002820490506001821680611f9a57607f821691505b602082108103611fad57611fac611f53565b5b50919050565b600082905092915050565b7f4e487b7100000000000000000000000000000000000000000000000000000000600052604160045260246000fd5b60008190508160005260206000209050919050565b60006020601f8301049050919050565b600082821b905092915050565b60006008830261204f7fffffffffffffffffffffffffffffffffffffffffffffffffffffffffffffffff82612012565b6120598683612012565b95508019841693508086168417925050509392505050565b6000819050919050565b600061209661209161208c84611949565b612071565b611949565b9050919050565b6000819050919050565b6120b08361207b565b6120c46120bc8261209d565b84845461201f565b825550505050565b600090565b6120d96120cc565b6120e48184846120a7565b505050565b5b81811015612108576120fd6000826120d1565b6001810190506120ea565b5050565b601f82111561214d5761211e81611fed565b61212784612002565b81016020851015612136578190505b61214a61214285612002565b8301826120e9565b50505b505050565b600082821c905092915050565b600061217060001984600802612152565b1980831691505092915050565b6000612189838361215f565b9150826002028217905092915050565b6121a38383611fb3565b67ffffffffffffffff8111156121bc576121bb611fbe565b5b6121c68254611f82565b6121d182828561210c565b6000601f83116001811461220057600084156121ee578287013590505b6121f8858261217d565b865550612260565b601f19841661220e86611fed565b60005b8281101561223657848901358255600182019150602085019450602081019050612211565b86831015612253578489013561224f601f89168261215f565b8355505b6001600288020188555050505b50505050505050565b61227282611962565b67ffffffffffffffff81111561228b5761228a611fbe565b5b6122958254611f82565b6122a082828561210c565b600060209050601f8311600181146122d357600084156122c1578287015190505b6122cb858261217d565b865550612333565b601f1984166122e186611fed565b60005b82811015612309578489015182556001820191506020850194506020810190506122e4565b868310156123265784890151612322601f89168261215f565b8355505b6001600288020188555050505b505050505050565b612344816118a3565b82525050565b600060208201905061235f600083018461233b565b92915050565b7f4e487b7100000000000000000000000000000000000000000000000000000000600052603260045260246000fd5b7f4e487b7100000000000000000000000000000000000000000000000000000000600052601160045260246000fd5b60006123ce82611949565b91507fffffffffffffffffffffffffffffffffffffffffffffffffffffffffffffffff8203612400576123ff612394565b5b600182019050919050565b6000604082019050612420600083018561233b565b61242d602083018461233b565b9392505050565b60008160601b9050919050565b600061244c82612434565b9050919050565b600061245e82612441565b9050919050565b612476612471826118a3565b612453565b82525050565b60006124888285612465565b6014820191506124988284612465565b601482019150819050939250505056fea26469706673582212207e2bc3a71ac627af91986bd44f2a1cfdb82f524839971c3dbee3420d19cde06864736f6c63430008130033",
  "linkReferences": {},
  "deployedLinkReferences": {}
}