{
  "_format": "hh-sol-artifact-1",
  "contractName": "Wasap_v2",
  "sourceName": "contracts/Wasap_v2.sol",
  "abi": [
    {
      "inputs": [],
      "name": "CannotAddYourselfAsAContact",
      "type": "error"
    },
    {
      "inputs": [],
      "name": "CreateAnAccountFirst",
      "type": "error"
    },
    {
      "inputs": [],
      "name": "IncorrectPaymentAmount",
      "type": "error"
    },
    {
      "inputs": [],
      "name": "InsufficientBalance",
      "type": "error"
    },
    {
      "inputs": [],
      "name": "InvalidAddress",
      "type": "error"
    },
    {
      "inputs": [],
      "name": "NewContactIsNotRegistered",
      "type": "error"
    },
    {
      "inputs": [],
      "name": "PaymentFailed",
      "type": "error"
    },
    {
      "inputs": [],
      "name": "UserAlreadyExist",
      "type": "error"
    },
    {
      "inputs": [],
      "name": "UserIsNotRegistered",
      "type": "error"
    },
    {
      "inputs": [],
      "name": "UserNameCannotBeEmpty",
      "type": "error"
    },
    {
      "inputs": [],
      "name": "UsersAlreadyContacts",
      "type": "error"
    },
    {
      "inputs": [],
      "name": "YouAreNotContactWithGivenUser",
      "type": "error"
    },
    {
      "anonymous": false,
      "inputs": [
        {
          "indexed": false,
          "internalType": "address",
          "name": "user",
          "type": "address"
        }
      ],
      "name": "AccountCreated",
      "type": "event"
    },
    {
      "anonymous": false,
      "inputs": [
        {
          "indexed": false,
          "internalType": "address",
          "name": "user",
          "type": "address"
        },
        {
          "indexed": false,
          "internalType": "address",
          "name": "contact",
          "type": "address"
        }
      ],
      "name": "ContactAdded",
      "type": "event"
    },
    {
      "anonymous": false,
      "inputs": [
        {
          "indexed": false,
          "internalType": "address",
          "name": "user",
          "type": "address"
        },
        {
          "indexed": false,
          "internalType": "address",
          "name": "contact",
          "type": "address"
        }
      ],
      "name": "ContactInfoUpdated",
      "type": "event"
    },
    {
      "anonymous": false,
      "inputs": [
        {
          "indexed": false,
          "internalType": "address",
          "name": "sender",
          "type": "address"
        },
        {
          "indexed": false,
          "internalType": "address",
          "name": "recipient",
          "type": "address"
        }
      ],
      "name": "PaymentSent",
      "type": "event"
    },
    {
      "anonymous": false,
      "inputs": [
        {
          "indexed": false,
          "internalType": "address",
          "name": "user",
          "type": "address"
        },
        {
          "indexed": false,
          "internalType": "address",
          "name": "contact",
          "type": "address"
        }
      ],
      "name": "TextSent",
      "type": "event"
    },
    {
      "anonymous": false,
      "inputs": [
        {
          "indexed": false,
          "internalType": "address",
          "name": "user",
          "type": "address"
        }
      ],
      "name": "UserInfoUpdated",
      "type": "event"
    },
    {
      "stateMutability": "nonpayable",
      "type": "fallback"
    },
    {
      "inputs": [],
      "name": "VERSION",
      "outputs": [
        {
          "internalType": "uint8",
          "name": "",
          "type": "uint8"
        }
      ],
      "stateMutability": "view",
      "type": "function"
    },
    {
      "inputs": [
        {
          "internalType": "address",
          "name": "_contactAddress",
          "type": "address"
        },
        {
          "internalType": "string",
          "name": "_contactName",
          "type": "string"
        }
      ],
      "name": "addContact",
      "outputs": [],
      "stateMutability": "nonpayable",
      "type": "function"
    },
    {
      "inputs": [
        {
          "internalType": "address",
          "name": "addressUser",
          "type": "address"
        }
      ],
      "name": "checkUserExists",
      "outputs": [
        {
          "internalType": "bool",
          "name": "",
          "type": "bool"
        }
      ],
      "stateMutability": "view",
      "type": "function"
    },
    {
      "inputs": [
        {
          "internalType": "string",
          "name": "_name",
          "type": "string"
        },
        {
          "internalType": "string",
          "name": "_avatar",
          "type": "string"
        }
      ],
      "name": "createAccount",
      "outputs": [],
      "stateMutability": "nonpayable",
      "type": "function"
    },
    {
      "inputs": [],
      "name": "getAllAppUsers",
      "outputs": [
        {
          "components": [
            {
              "internalType": "string",
              "name": "name",
              "type": "string"
            },
            {
              "internalType": "address",
              "name": "userAddress",
              "type": "address"
            }
          ],
          "internalType": "struct Wasap_v2.AllUsers[]",
          "name": "",
          "type": "tuple[]"
        }
      ],
      "stateMutability": "view",
      "type": "function"
    },
    {
      "inputs": [],
      "name": "getUserContactList",
      "outputs": [
        {
          "components": [
            {
              "internalType": "address",
              "name": "contactAddress",
              "type": "address"
            },
            {
              "internalType": "string",
              "name": "name",
              "type": "string"
            },
            {
              "internalType": "string",
              "name": "avatar",
              "type": "string"
            }
          ],
          "internalType": "struct Wasap_v2.ContactWithAvatar[]",
          "name": "",
          "type": "tuple[]"
        }
      ],
      "stateMutability": "view",
      "type": "function"
    },
    {
      "inputs": [
        {
          "internalType": "address",
          "name": "_address",
          "type": "address"
        }
      ],
      "name": "getUserInfo",
      "outputs": [
        {
          "internalType": "string",
          "name": "name",
          "type": "string"
        },
        {
          "internalType": "string",
          "name": "avatar",
          "type": "string"
        }
      ],
      "stateMutability": "view",
      "type": "function"
    },
    {
      "inputs": [
        {
          "internalType": "address",
          "name": "_contactAddress",
          "type": "address"
        }
      ],
      "name": "readPayments",
      "outputs": [
        {
          "components": [
            {
              "internalType": "address",
              "name": "sender",
              "type": "address"
            },
            {
              "internalType": "uint256",
              "name": "timestamp",
              "type": "uint256"
            },
            {
              "internalType": "uint256",
              "name": "amount",
              "type": "uint256"
            }
          ],
          "internalType": "struct Wasap_v2.Payment[]",
          "name": "",
          "type": "tuple[]"
        }
      ],
      "stateMutability": "view",
      "type": "function"
    },
    {
      "inputs": [
        {
          "internalType": "address",
          "name": "_contactAddress",
          "type": "address"
        }
      ],
      "name": "readTexts",
      "outputs": [
        {
          "components": [
            {
              "internalType": "address",
              "name": "sender",
              "type": "address"
            },
            {
              "internalType": "uint256",
              "name": "timestamp",
              "type": "uint256"
            },
            {
              "internalType": "string",
              "name": "text",
              "type": "string"
            }
          ],
          "internalType": "struct Wasap_v2.Text[]",
          "name": "",
          "type": "tuple[]"
        }
      ],
      "stateMutability": "view",
      "type": "function"
    },
    {
      "inputs": [
        {
          "internalType": "address payable",
          "name": "_contactAddress",
          "type": "address"
        }
      ],
      "name": "sendPayment",
      "outputs": [],
      "stateMutability": "payable",
      "type": "function"
    },
    {
      "inputs": [
        {
          "internalType": "address",
          "name": "_contactAddress",
          "type": "address"
        },
        {
          "internalType": "string",
          "name": "_text",
          "type": "string"
        }
      ],
      "name": "sendText",
      "outputs": [],
      "stateMutability": "nonpayable",
      "type": "function"
    },
    {
      "inputs": [
        {
          "internalType": "address",
          "name": "_contactAddress",
          "type": "address"
        },
        {
          "internalType": "string",
          "name": "_name",
          "type": "string"
        }
      ],
      "name": "updateContactName",
      "outputs": [],
      "stateMutability": "nonpayable",
      "type": "function"
    },
    {
      "inputs": [
        {
          "internalType": "string",
          "name": "_userAvatar",
          "type": "string"
        },
        {
          "internalType": "string",
          "name": "_userName",
          "type": "string"
        }
      ],
      "name": "updateUserInfo",
      "outputs": [],
      "stateMutability": "nonpayable",
      "type": "function"
    },
    {
      "stateMutability": "payable",
      "type": "receive"
    }
  ],
  "bytecode": "0x608060405234801561001057600080fd5b50612bb3806100206000396000f3fe6080604052600436106100c65760003560e01c8063835852a51161007f578063c444816411610059578063c444816414610292578063db6dd4f1146102bb578063fa12422f146102e6578063ffa1ad741461030f576100cd565b8063835852a5146102225780638361651d1461024b5780638a7644a814610276576100cd565b8063133f50f5146100db57806319289287146101185780634b3fcab51461014157806360a864861461016a578063635d175d146101a75780636386c1c7146101e4576100cd565b366100cd57005b3480156100d957600080fd5b005b3480156100e757600080fd5b5061010260048036038101906100fd9190611d3d565b61033a565b60405161010f9190611d85565b60405180910390f35b34801561012457600080fd5b5061013f600480360381019061013a9190611e05565b610394565b005b34801561014d57600080fd5b5061016860048036038101906101639190611e05565b6105eb565b005b34801561017657600080fd5b50610191600480360381019061018c9190611d3d565b6106cc565b60405161019e9190612050565b60405180910390f35b3480156101b357600080fd5b506101ce60048036038101906101c99190611d3d565b61083f565b6040516101db9190612163565b60405180910390f35b3480156101f057600080fd5b5061020b60048036038101906102069190611d3d565b61092a565b6040516102199291906121cf565b60405180910390f35b34801561022e57600080fd5b5061024960048036038101906102449190612206565b610b11565b005b34801561025757600080fd5b50610260610ca6565b60405161026d919061237f565b60405180910390f35b610290600480360381019061028b91906123df565b611020565b005b34801561029e57600080fd5b506102b960048036038101906102b49190612206565b6112d7565b005b3480156102c757600080fd5b506102d06115c3565b6040516102dd919061250b565b60405180910390f35b3480156102f257600080fd5b5061030d60048036038101906103089190612206565b61170a565b005b34801561031b57600080fd5b50610324611935565b6040516103319190612549565b60405180910390f35b600080600160008473ffffffffffffffffffffffffffffffffffffffff1673ffffffffffffffffffffffffffffffffffffffff168152602001908152602001600020600101805461038a90612593565b9050119050919050565b61039d3361033a565b156103d4576040517f3ee20b6900000000000000000000000000000000000000000000000000000000815260040160405180910390fd5b60008484905003610411576040517fa3be3df000000000000000000000000000000000000000000000000000000000815260040160405180910390fd5b8181600160003373ffffffffffffffffffffffffffffffffffffffff1673ffffffffffffffffffffffffffffffffffffffff16815260200190815260200160002060000191826104629291906127aa565b508383600160003373ffffffffffffffffffffffffffffffffffffffff1673ffffffffffffffffffffffffffffffffffffffff16815260200190815260200160002060010191826104b49291906127aa565b506000604051806040016040528086868080601f016020809104026020016040519081016040528093929190818152602001838380828437600081840152601f19601f8201169050808301925050505050505081526020013373ffffffffffffffffffffffffffffffffffffffff1681525090806001815401808255809150506001900390600052602060002090600202016000909190919091506000820151816000019081610564919061287a565b5060208201518160010160006101000a81548173ffffffffffffffffffffffffffffffffffffffff021916908373ffffffffffffffffffffffffffffffffffffffff16021790555050507f805996f252884581e2f74cf3d2b03564d5ec26ccc90850ae12653dc1b72d1fa2336040516105dd919061295b565b60405180910390a150505050565b8181600160003373ffffffffffffffffffffffffffffffffffffffff1673ffffffffffffffffffffffffffffffffffffffff168152602001908152602001600020600101918261063c9291906127aa565b508383600160003373ffffffffffffffffffffffffffffffffffffffff1673ffffffffffffffffffffffffffffffffffffffff168152602001908152602001600020600001918261068e9291906127aa565b507fa267530518909239d6d9966f12bf391177dde455b3233f6166ab8cd424f17fd5336040516106be919061295b565b60405180910390a150505050565b606060006106da338461193a565b905060026000828152602001908152602001600020805480602002602001604051908101604052809291908181526020016000905b8282101561083357838290600052602060002090600302016040518060600160405290816000820160009054906101000a900473ffffffffffffffffffffffffffffffffffffffff1673ffffffffffffffffffffffffffffffffffffffff1673ffffffffffffffffffffffffffffffffffffffff168152602001600182015481526020016002820180546107a290612593565b80601f01602080910402602001604051908101604052809291908181526020018280546107ce90612593565b801561081b5780601f106107f05761010080835404028352916020019161081b565b820191906000526020600020905b8154815290600101906020018083116107fe57829003601f168201915b5050505050815250508152602001906001019061070f565b50505050915050919050565b6060600061084d338461193a565b905060036000828152602001908152602001600020805480602002602001604051908101604052809291908181526020016000905b8282101561091e57838290600052602060002090600302016040518060600160405290816000820160009054906101000a900473ffffffffffffffffffffffffffffffffffffffff1673ffffffffffffffffffffffffffffffffffffffff1673ffffffffffffffffffffffffffffffffffffffff1681526020016001820154815260200160028201548152505081526020019060010190610882565b50505050915050919050565b6060806109363361033a565b61096c576040517f88ce161b00000000000000000000000000000000000000000000000000000000815260040160405180910390fd5b600160008473ffffffffffffffffffffffffffffffffffffffff1673ffffffffffffffffffffffffffffffffffffffff168152602001908152602001600020600101600160008573ffffffffffffffffffffffffffffffffffffffff1673ffffffffffffffffffffffffffffffffffffffff1681526020019081526020016000206000018180546109fc90612593565b80601f0160208091040260200160405190810160405280929190818152602001828054610a2890612593565b8015610a755780601f10610a4a57610100808354040283529160200191610a75565b820191906000526020600020905b815481529060010190602001808311610a5857829003601f168201915b50505050509150808054610a8890612593565b80601f0160208091040260200160405190810160405280929190818152602001828054610ab490612593565b8015610b015780601f10610ad657610100808354040283529160200191610b01565b820191906000526020600020905b815481529060010190602001808311610ae457829003601f168201915b5050505050905091509150915091565b60008282905003610b4e576040517fa3be3df000000000000000000000000000000000000000000000000000000000815260040160405180910390fd5b6000600160003373ffffffffffffffffffffffffffffffffffffffff1673ffffffffffffffffffffffffffffffffffffffff168152602001908152602001600020600201905060005b8180549050811015610c66578473ffffffffffffffffffffffffffffffffffffffff16828281548110610bcd57610bcc612976565b5b906000526020600020906002020160000160009054906101000a900473ffffffffffffffffffffffffffffffffffffffff1673ffffffffffffffffffffffffffffffffffffffff1603610c53578383838381548110610c2f57610c2e612976565b5b90600052602060002090600202016001019182610c4d9291906127aa565b50610c66565b8080610c5e906129d4565b915050610b97565b507f73ce70270a42e8d7bebf368ff404a5a3f63dbef22a76e261022c0069d042a2f53385604051610c98929190612a1c565b60405180910390a150505050565b60606000600160003373ffffffffffffffffffffffffffffffffffffffff1673ffffffffffffffffffffffffffffffffffffffff168152602001908152602001600020600201805480602002602001604051908101604052809291908181526020016000905b82821015610e2657838290600052602060002090600202016040518060400160405290816000820160009054906101000a900473ffffffffffffffffffffffffffffffffffffffff1673ffffffffffffffffffffffffffffffffffffffff1673ffffffffffffffffffffffffffffffffffffffff168152602001600182018054610d9590612593565b80601f0160208091040260200160405190810160405280929190818152602001828054610dc190612593565b8015610e0e5780601f10610de357610100808354040283529160200191610e0e565b820191906000526020600020905b815481529060010190602001808311610df157829003601f168201915b50505050508152505081526020019060010190610d0c565b5050505090506000815167ffffffffffffffff811115610e4957610e486125cf565b5b604051908082528060200260200182016040528015610e8257816020015b610e6f611c9e565b815260200190600190039081610e675790505b50905060005b8251811015611017576040518060600160405280848381518110610eaf57610eae612976565b5b60200260200101516000015173ffffffffffffffffffffffffffffffffffffffff168152602001848381518110610ee957610ee8612976565b5b602002602001015160200151815260200160016000868581518110610f1157610f10612976565b5b60200260200101516000015173ffffffffffffffffffffffffffffffffffffffff1673ffffffffffffffffffffffffffffffffffffffff1681526020019081526020016000206000018054610f6590612593565b80601f0160208091040260200160405190810160405280929190818152602001828054610f9190612593565b8015610fde5780601f10610fb357610100808354040283529160200191610fde565b820191906000526020600020905b815481529060010190602001808311610fc157829003601f168201915b5050505050815250828281518110610ff957610ff8612976565b5b6020026020010181905250808061100f906129d4565b915050610e88565b50809250505090565b6000340361105a576040517f6992e1ff00000000000000000000000000000000000000000000000000000000815260040160405180910390fd5b6110633361033a565b611099576040517fe948a3c000000000000000000000000000000000000000000000000000000000815260040160405180910390fd5b6110a28161033a565b6110d8576040517f88ce161b00000000000000000000000000000000000000000000000000000000815260040160405180910390fd5b6110e233826119d2565b611118576040517f926b299f00000000000000000000000000000000000000000000000000000000815260040160405180910390fd5b60008173ffffffffffffffffffffffffffffffffffffffff163460405161113e90612a76565b60006040518083038185875af1925050503d806000811461117b576040519150601f19603f3d011682016040523d82523d6000602084013e611180565b606091505b50509050806111bb576040517ff499da2000000000000000000000000000000000000000000000000000000000815260040160405180910390fd5b60006111c7338461193a565b9050600060405180606001604052803373ffffffffffffffffffffffffffffffffffffffff1681526020014281526020013481525090506003600083815260200190815260200160002081908060018154018082558091505060019003906000526020600020906003020160009091909190915060008201518160000160006101000a81548173ffffffffffffffffffffffffffffffffffffffff021916908373ffffffffffffffffffffffffffffffffffffffff160217905550602082015181600101556040820151816002015550507ffce22cefdb336b39334f060bbcd137935749cf710dbecfef411e899ac50bc49433856040516112c9929190612ae0565b60405180910390a150505050565b6112e03361033a565b611316576040517fe948a3c000000000000000000000000000000000000000000000000000000000815260040160405180910390fd5b61131f8361033a565b611355576040517f62992a7d00000000000000000000000000000000000000000000000000000000815260040160405180910390fd5b8273ffffffffffffffffffffffffffffffffffffffff163373ffffffffffffffffffffffffffffffffffffffff16036113ba576040517f1b938d2700000000000000000000000000000000000000000000000000000000815260040160405180910390fd5b6113c433846119d2565b156113fb576040517feac2e91600000000000000000000000000000000000000000000000000000000815260040160405180910390fd5b600073ffffffffffffffffffffffffffffffffffffffff168373ffffffffffffffffffffffffffffffffffffffff1603611461576040517fe6c4247b00000000000000000000000000000000000000000000000000000000815260040160405180910390fd5b6114b0338484848080601f016020809104026020016040519081016040528093929190818152602001838380828437600081840152601f19601f82011690508083019250505050505050611ba4565b6115858333600160003373ffffffffffffffffffffffffffffffffffffffff1673ffffffffffffffffffffffffffffffffffffffff168152602001908152602001600020600101805461150290612593565b80601f016020809104026020016040519081016040528092919081815260200182805461152e90612593565b801561157b5780601f106115505761010080835404028352916020019161157b565b820191906000526020600020905b81548152906001019060200180831161155e57829003601f168201915b5050505050611ba4565b7f991da500dc9f910ce2a64c3d13783d3f75d912d123ae2d8334ad0a817c91f23b33846040516115b6929190612a1c565b60405180910390a1505050565b60606000805480602002602001604051908101604052809291908181526020016000905b82821015611701578382906000526020600020906002020160405180604001604052908160008201805461161a90612593565b80601f016020809104026020016040519081016040528092919081815260200182805461164690612593565b80156116935780601f1061166857610100808354040283529160200191611693565b820191906000526020600020905b81548152906001019060200180831161167657829003601f168201915b505050505081526020016001820160009054906101000a900473ffffffffffffffffffffffffffffffffffffffff1673ffffffffffffffffffffffffffffffffffffffff1673ffffffffffffffffffffffffffffffffffffffff1681525050815260200190600101906115e7565b50505050905090565b6117133361033a565b611749576040517fe948a3c000000000000000000000000000000000000000000000000000000000815260040160405180910390fd5b6117528361033a565b611788576040517f88ce161b00000000000000000000000000000000000000000000000000000000815260040160405180910390fd5b61179233846119d2565b6117c8576040517f926b299f00000000000000000000000000000000000000000000000000000000815260040160405180910390fd5b60006117d4338561193a565b9050600060405180606001604052803373ffffffffffffffffffffffffffffffffffffffff16815260200142815260200185858080601f016020809104026020016040519081016040528093929190818152602001838380828437600081840152601f19601f8201169050808301925050505050505081525090506002600083815260200190815260200160002081908060018154018082558091505060019003906000526020600020906003020160009091909190915060008201518160000160006101000a81548173ffffffffffffffffffffffffffffffffffffffff021916908373ffffffffffffffffffffffffffffffffffffffff1602179055506020820151816001015560408201518160020190816118f2919061287a565b5050507f14698637437af4a59b248ab2bb4be39b04aac83c0edd5a32fc9ee6b30839bc593386604051611926929190612a1c565b60405180910390a15050505050565b600281565b60008173ffffffffffffffffffffffffffffffffffffffff168373ffffffffffffffffffffffffffffffffffffffff1610156119a0578282604051602001611983929190612b51565b6040516020818303038152906040528051906020012090506119cc565b81836040516020016119b3929190612b51565b6040516020818303038152906040528051906020012090505b92915050565b6000600160008373ffffffffffffffffffffffffffffffffffffffff1673ffffffffffffffffffffffffffffffffffffffff16815260200190815260200160002060020180549050600160008573ffffffffffffffffffffffffffffffffffffffff1673ffffffffffffffffffffffffffffffffffffffff168152602001908152602001600020600201805490501115611a73576000839050829350809250505b60005b600160008573ffffffffffffffffffffffffffffffffffffffff1673ffffffffffffffffffffffffffffffffffffffff16815260200190815260200160002060020180549050811015611b98578273ffffffffffffffffffffffffffffffffffffffff16600160008673ffffffffffffffffffffffffffffffffffffffff1673ffffffffffffffffffffffffffffffffffffffff1681526020019081526020016000206002018281548110611b2e57611b2d612976565b5b906000526020600020906002020160000160009054906101000a900473ffffffffffffffffffffffffffffffffffffffff1673ffffffffffffffffffffffffffffffffffffffff1603611b85576001915050611b9e565b8080611b90906129d4565b915050611a76565b50600090505b92915050565b600160008473ffffffffffffffffffffffffffffffffffffffff1673ffffffffffffffffffffffffffffffffffffffff16815260200190815260200160002060020160405180604001604052808473ffffffffffffffffffffffffffffffffffffffff16815260200183815250908060018154018082558091505060019003906000526020600020906002020160009091909190915060008201518160000160006101000a81548173ffffffffffffffffffffffffffffffffffffffff021916908373ffffffffffffffffffffffffffffffffffffffff1602179055506020820151816001019081611c96919061287a565b505050505050565b6040518060600160405280600073ffffffffffffffffffffffffffffffffffffffff16815260200160608152602001606081525090565b600080fd5b600080fd5b600073ffffffffffffffffffffffffffffffffffffffff82169050919050565b6000611d0a82611cdf565b9050919050565b611d1a81611cff565b8114611d2557600080fd5b50565b600081359050611d3781611d11565b92915050565b600060208284031215611d5357611d52611cd5565b5b6000611d6184828501611d28565b91505092915050565b60008115159050919050565b611d7f81611d6a565b82525050565b6000602082019050611d9a6000830184611d76565b92915050565b600080fd5b600080fd5b600080fd5b60008083601f840112611dc557611dc4611da0565b5b8235905067ffffffffffffffff811115611de257611de1611da5565b5b602083019150836001820283011115611dfe57611dfd611daa565b5b9250929050565b60008060008060408587031215611e1f57611e1e611cd5565b5b600085013567ffffffffffffffff811115611e3d57611e3c611cda565b5b611e4987828801611daf565b9450945050602085013567ffffffffffffffff811115611e6c57611e6b611cda565b5b611e7887828801611daf565b925092505092959194509250565b600081519050919050565b600082825260208201905092915050565b6000819050602082019050919050565b611ebb81611cff565b82525050565b6000819050919050565b611ed481611ec1565b82525050565b600081519050919050565b600082825260208201905092915050565b60005b83811015611f14578082015181840152602081019050611ef9565b60008484015250505050565b6000601f19601f8301169050919050565b6000611f3c82611eda565b611f468185611ee5565b9350611f56818560208601611ef6565b611f5f81611f20565b840191505092915050565b6000606083016000830151611f826000860182611eb2565b506020830151611f956020860182611ecb565b5060408301518482036040860152611fad8282611f31565b9150508091505092915050565b6000611fc68383611f6a565b905092915050565b6000602082019050919050565b6000611fe682611e86565b611ff08185611e91565b93508360208202850161200285611ea2565b8060005b8581101561203e578484038952815161201f8582611fba565b945061202a83611fce565b925060208a01995050600181019050612006565b50829750879550505050505092915050565b6000602082019050818103600083015261206a8184611fdb565b905092915050565b600081519050919050565b600082825260208201905092915050565b6000819050602082019050919050565b6060820160008201516120b46000850182611eb2565b5060208201516120c76020850182611ecb565b5060408201516120da6040850182611ecb565b50505050565b60006120ec838361209e565b60608301905092915050565b6000602082019050919050565b600061211082612072565b61211a818561207d565b93506121258361208e565b8060005b8381101561215657815161213d88826120e0565b9750612148836120f8565b925050600181019050612129565b5085935050505092915050565b6000602082019050818103600083015261217d8184612105565b905092915050565b600082825260208201905092915050565b60006121a182611eda565b6121ab8185612185565b93506121bb818560208601611ef6565b6121c481611f20565b840191505092915050565b600060408201905081810360008301526121e98185612196565b905081810360208301526121fd8184612196565b90509392505050565b60008060006040848603121561221f5761221e611cd5565b5b600061222d86828701611d28565b935050602084013567ffffffffffffffff81111561224e5761224d611cda565b5b61225a86828701611daf565b92509250509250925092565b600081519050919050565b600082825260208201905092915050565b6000819050602082019050919050565b60006060830160008301516122aa6000860182611eb2565b50602083015184820360208601526122c28282611f31565b915050604083015184820360408601526122dc8282611f31565b9150508091505092915050565b60006122f58383612292565b905092915050565b6000602082019050919050565b600061231582612266565b61231f8185612271565b93508360208202850161233185612282565b8060005b8581101561236d578484038952815161234e85826122e9565b9450612359836122fd565b925060208a01995050600181019050612335565b50829750879550505050505092915050565b60006020820190508181036000830152612399818461230a565b905092915050565b60006123ac82611cdf565b9050919050565b6123bc816123a1565b81146123c757600080fd5b50565b6000813590506123d9816123b3565b92915050565b6000602082840312156123f5576123f4611cd5565b5b6000612403848285016123ca565b91505092915050565b600081519050919050565b600082825260208201905092915050565b6000819050602082019050919050565b600060408301600083015184820360008601526124558282611f31565b915050602083015161246a6020860182611eb2565b508091505092915050565b60006124818383612438565b905092915050565b6000602082019050919050565b60006124a18261240c565b6124ab8185612417565b9350836020820285016124bd85612428565b8060005b858110156124f957848403895281516124da8582612475565b94506124e583612489565b925060208a019950506001810190506124c1565b50829750879550505050505092915050565b600060208201905081810360008301526125258184612496565b905092915050565b600060ff82169050919050565b6125438161252d565b82525050565b600060208201905061255e600083018461253a565b92915050565b7f4e487b7100000000000000000000000000000000000000000000000000000000600052602260045260246000fd5b600060028204905060018216806125ab57607f821691505b6020821081036125be576125bd612564565b5b50919050565b600082905092915050565b7f4e487b7100000000000000000000000000000000000000000000000000000000600052604160045260246000fd5b60008190508160005260206000209050919050565b60006020601f8301049050919050565b600082821b905092915050565b6000600883026126607fffffffffffffffffffffffffffffffffffffffffffffffffffffffffffffffff82612623565b61266a8683612623565b95508019841693508086168417925050509392505050565b6000819050919050565b60006126a76126a261269d84611ec1565b612682565b611ec1565b9050919050565b6000819050919050565b6126c18361268c565b6126d56126cd826126ae565b848454612630565b825550505050565b600090565b6126ea6126dd565b6126f58184846126b8565b505050565b5b818110156127195761270e6000826126e2565b6001810190506126fb565b5050565b601f82111561275e5761272f816125fe565b61273884612613565b81016020851015612747578190505b61275b61275385612613565b8301826126fa565b50505b505050565b600082821c905092915050565b600061278160001984600802612763565b1980831691505092915050565b600061279a8383612770565b9150826002028217905092915050565b6127b483836125c4565b67ffffffffffffffff8111156127cd576127cc6125cf565b5b6127d78254612593565b6127e282828561271d565b6000601f83116001811461281157600084156127ff578287013590505b612809858261278e565b865550612871565b601f19841661281f866125fe565b60005b8281101561284757848901358255600182019150602085019450602081019050612822565b868310156128645784890135612860601f891682612770565b8355505b6001600288020188555050505b50505050505050565b61288382611eda565b67ffffffffffffffff81111561289c5761289b6125cf565b5b6128a68254612593565b6128b182828561271d565b600060209050601f8311600181146128e457600084156128d2578287015190505b6128dc858261278e565b865550612944565b601f1984166128f2866125fe565b60005b8281101561291a578489015182556001820191506020850194506020810190506128f5565b868310156129375784890151612933601f891682612770565b8355505b6001600288020188555050505b505050505050565b61295581611cff565b82525050565b6000602082019050612970600083018461294c565b92915050565b7f4e487b7100000000000000000000000000000000000000000000000000000000600052603260045260246000fd5b7f4e487b7100000000000000000000000000000000000000000000000000000000600052601160045260246000fd5b60006129df82611ec1565b91507fffffffffffffffffffffffffffffffffffffffffffffffffffffffffffffffff8203612a1157612a106129a5565b5b600182019050919050565b6000604082019050612a31600083018561294c565b612a3e602083018461294c565b9392505050565b600081905092915050565b50565b6000612a60600083612a45565b9150612a6b82612a50565b600082019050919050565b6000612a8182612a53565b9150819050919050565b6000612aa6612aa1612a9c84611cdf565b612682565b611cdf565b9050919050565b6000612ab882612a8b565b9050919050565b6000612aca82612aad565b9050919050565b612ada81612abf565b82525050565b6000604082019050612af5600083018561294c565b612b026020830184612ad1565b9392505050565b60008160601b9050919050565b6000612b2182612b09565b9050919050565b6000612b3382612b16565b9050919050565b612b4b612b4682611cff565b612b28565b82525050565b6000612b5d8285612b3a565b601482019150612b6d8284612b3a565b601482019150819050939250505056fea264697066735822122071129d7e277a672aed517a250215a16df724d638a3b6ef5b9ebb68653e63dd1f64736f6c63430008130033",
  "linkReferences": {},
  "deployedLinkReferences": {}
}